{
  "_format": "hh-sol-artifact-1",
  "contractName": "SecondSwap_MarketplaceSetting",
  "sourceName": "contracts/SecondSwap_MarketplaceSetting.sol",
  "abi": [
    {
      "inputs": [
        {
          "internalType": "address",
          "name": "_feeCollector",
          "type": "address"
        },
        {
          "internalType": "address",
          "name": "_s2Admin",
          "type": "address"
        },
        {
          "internalType": "address",
          "name": "_whitelistDeployer",
          "type": "address"
        },
        {
          "internalType": "address",
          "name": "_vestingManager",
          "type": "address"
        },
        {
          "internalType": "address",
          "name": "_usdt",
          "type": "address"
        }
      ],
      "stateMutability": "nonpayable",
      "type": "constructor"
    },
    {
      "anonymous": false,
      "inputs": [
        {
          "indexed": false,
          "internalType": "address",
          "name": "newAdmin",
          "type": "address"
        }
      ],
      "name": "AdminUpdated",
      "type": "event"
    },
    {
      "anonymous": false,
      "inputs": [
        {
          "indexed": false,
          "internalType": "uint256",
          "name": "buyerFee",
          "type": "uint256"
        }
      ],
      "name": "DefaultBuyerFeeUpdated",
      "type": "event"
    },
    {
      "anonymous": false,
      "inputs": [
        {
          "indexed": false,
          "internalType": "uint256",
          "name": "penaltyFee",
          "type": "uint256"
        }
      ],
      "name": "DefaultPenaltyFeeUpdated",
      "type": "event"
    },
    {
      "anonymous": false,
      "inputs": [
        {
          "indexed": false,
          "internalType": "uint256",
          "name": "sellerFee",
          "type": "uint256"
        }
      ],
      "name": "DefaultSellerFeeUpdated",
      "type": "event"
    },
    {
      "anonymous": false,
      "inputs": [
        {
          "indexed": false,
          "internalType": "address",
          "name": "newDev",
          "type": "address"
        }
      ],
      "name": "DevUpdated",
      "type": "event"
    },
    {
      "anonymous": false,
      "inputs": [
        {
          "indexed": false,
          "internalType": "address",
          "name": "newCollector",
          "type": "address"
        }
      ],
      "name": "FeeCollectorUpdated",
      "type": "event"
    },
    {
      "anonymous": false,
      "inputs": [
        {
          "indexed": false,
          "internalType": "bool",
          "name": "status",
          "type": "bool"
        }
      ],
      "name": "MarketplaceStatusUpdated",
      "type": "event"
    },
    {
      "anonymous": false,
      "inputs": [
        {
          "indexed": false,
          "internalType": "uint256",
          "name": "penaltyTime",
          "type": "uint256"
        }
      ],
      "name": "PenaltyDurationUpdated",
      "type": "event"
    },
    {
      "anonymous": false,
      "inputs": [
        {
          "indexed": false,
          "internalType": "uint256",
          "name": "_percentage",
          "type": "uint256"
        }
      ],
      "name": "ReferralUpdated",
      "type": "event"
    },
    {
      "inputs": [],
      "name": "buyerFee",
      "outputs": [
        {
          "internalType": "uint256",
          "name": "",
          "type": "uint256"
        }
      ],
      "stateMutability": "view",
      "type": "function"
    },
    {
      "inputs": [],
      "name": "feeCollector",
      "outputs": [
        {
          "internalType": "address",
          "name": "",
          "type": "address"
        }
      ],
      "stateMutability": "view",
      "type": "function"
    },
    {
      "inputs": [
        {
          "internalType": "address",
          "name": "_vesting",
          "type": "address"
        }
      ],
      "name": "getVestingFees",
      "outputs": [
        {
          "internalType": "int256",
          "name": "VPbuyerFee",
          "type": "int256"
        },
        {
          "internalType": "int256",
          "name": "VPsellerFee",
          "type": "int256"
        }
      ],
      "stateMutability": "view",
      "type": "function"
    },
    {
      "inputs": [],
      "name": "isMarketplaceFreeze",
      "outputs": [
        {
          "internalType": "bool",
          "name": "",
          "type": "bool"
        }
      ],
      "stateMutability": "view",
      "type": "function"
    },
    {
      "inputs": [],
      "name": "minListingDuration",
      "outputs": [
        {
          "internalType": "uint256",
          "name": "",
          "type": "uint256"
        }
      ],
      "stateMutability": "view",
      "type": "function"
    },
    {
      "inputs": [],
      "name": "penaltyFee",
      "outputs": [
        {
          "internalType": "uint256",
          "name": "",
          "type": "uint256"
        }
      ],
      "stateMutability": "view",
      "type": "function"
    },
    {
      "inputs": [],
      "name": "referralFee",
      "outputs": [
        {
          "internalType": "uint256",
          "name": "",
          "type": "uint256"
        }
      ],
      "stateMutability": "view",
      "type": "function"
    },
    {
      "inputs": [],
      "name": "referralFeeCollector",
      "outputs": [
        {
          "internalType": "address",
          "name": "",
          "type": "address"
        }
      ],
      "stateMutability": "view",
      "type": "function"
    },
    {
      "inputs": [],
      "name": "s2Admin",
      "outputs": [
        {
          "internalType": "address",
          "name": "",
          "type": "address"
        }
      ],
      "stateMutability": "view",
      "type": "function"
    },
    {
      "inputs": [],
      "name": "sellerFee",
      "outputs": [
        {
          "internalType": "uint256",
          "name": "",
          "type": "uint256"
        }
      ],
      "stateMutability": "view",
      "type": "function"
    },
    {
      "inputs": [
        {
          "internalType": "uint256",
          "name": "_amount",
          "type": "uint256"
        }
      ],
      "name": "setBuyerFee",
      "outputs": [],
      "stateMutability": "nonpayable",
      "type": "function"
    },
    {
      "inputs": [
        {
          "internalType": "address",
          "name": "_address",
          "type": "address"
        }
      ],
      "name": "setFeeAccount",
      "outputs": [],
      "stateMutability": "nonpayable",
      "type": "function"
    },
    {
      "inputs": [
        {
          "internalType": "address",
          "name": "_vestingManager",
          "type": "address"
        }
      ],
      "name": "setManager",
      "outputs": [],
      "stateMutability": "nonpayable",
      "type": "function"
    },
    {
      "inputs": [
        {
          "internalType": "bool",
          "name": "_status",
          "type": "bool"
        }
      ],
      "name": "setMarketplaceStatus",
      "outputs": [],
      "stateMutability": "nonpayable",
      "type": "function"
    },
    {
      "inputs": [
        {
          "internalType": "uint256",
          "name": "_seconds",
          "type": "uint256"
        }
      ],
      "name": "setMinListingDuration",
      "outputs": [],
      "stateMutability": "nonpayable",
      "type": "function"
    },
    {
      "inputs": [
        {
          "internalType": "uint256",
          "name": "_amount",
          "type": "uint256"
        }
      ],
      "name": "setPenaltyFee",
      "outputs": [],
      "stateMutability": "nonpayable",
      "type": "function"
    },
    {
      "inputs": [
        {
          "internalType": "uint256",
          "name": "_percentage",
          "type": "uint256"
        }
      ],
      "name": "setReferral",
      "outputs": [],
      "stateMutability": "nonpayable",
      "type": "function"
    },
    {
      "inputs": [
        {
          "internalType": "address",
          "name": "_user",
          "type": "address"
        }
      ],
      "name": "setS2Admin",
      "outputs": [],
      "stateMutability": "nonpayable",
      "type": "function"
    },
    {
      "inputs": [
        {
          "internalType": "uint256",
          "name": "_amount",
          "type": "uint256"
        }
      ],
      "name": "setSellerFee",
      "outputs": [],
      "stateMutability": "nonpayable",
      "type": "function"
    },
    {
      "inputs": [
        {
          "internalType": "address",
          "name": "_whitelistDeployer",
          "type": "address"
        }
      ],
      "name": "setWhitelistDeployer",
      "outputs": [],
      "stateMutability": "nonpayable",
      "type": "function"
    },
    {
      "inputs": [],
      "name": "usdt",
      "outputs": [
        {
          "internalType": "contract IERC20",
          "name": "",
          "type": "address"
        }
      ],
      "stateMutability": "view",
      "type": "function"
    },
    {
      "inputs": [],
      "name": "vestingManager",
      "outputs": [
        {
          "internalType": "address",
          "name": "",
          "type": "address"
        }
      ],
      "stateMutability": "view",
      "type": "function"
    },
    {
      "inputs": [],
      "name": "whitelistDeployer",
      "outputs": [
        {
          "internalType": "address",
          "name": "",
          "type": "address"
        }
      ],
      "stateMutability": "view",
      "type": "function"
    }
  ],
  "bytecode": "0x60806040523480156200001157600080fd5b5060405162001078380380620010788339810160408190526200003491620001b5565b6001600160a01b038516620000a55760405162461bcd60e51b815260206004820152603660248201526000805160206200105883398151915260448201527f2066656520636f6c6c6563746f7220616464726573730000000000000000000060648201526084015b60405180910390fd5b6001600160a01b038416620001035760405162461bcd60e51b815260206004820152602e60248201526000805160206200105883398151915260448201526d2061646d696e206164647265737360901b60648201526084016200009c565b60058054600680546001600160a01b03199081166001600160a01b039889161790915560fa6000819055600155678ac7230489e8000060025560786003556103e86004556001600160a81b03199091166101009787169790970260ff191696909617905560078054861693851693909317909255600880548516918416919091179055600a8054909316911617905562000225565b80516001600160a01b0381168114620001b057600080fd5b919050565b600080600080600060a08688031215620001ce57600080fd5b620001d98662000198565b9450620001e96020870162000198565b9350620001f96040870162000198565b9250620002096060870162000198565b9150620002196080870162000198565b90509295509295909350565b610e2380620002356000396000f3fe608060405234801561001057600080fd5b506004361061014d5760003560e01c806367f52fa3116100c3578063c415b95c1161007c578063c415b95c146102a4578063d0ebdbe7146102bc578063db27b8dd146102cf578063e1f3d55a146102e2578063e750a15e146102eb578063fa7da19d1461031357600080fd5b806367f52fa31461024657806379ed74d31461025957806384ae2bc61461026c57806391b5a13314610275578063957d90d414610288578063ae7d99ea1461029157600080fd5b806337eb7e011161011557806337eb7e01146101d05780633dc10ad4146101e35780634b023cf8146101fa57806352a0d0d91461020d5780635de6c42f1461022a57806360861ec81461023357600080fd5b806310c4f434146101525780631bfee121146101675780631d5010201461017a578063290156371461018d5780632f48ab7d146101bd575b600080fd5b610165610160366004610c76565b610326565b005b610165610175366004610c76565b61040b565b610165610188366004610c8f565b6104e2565b6009546101a0906001600160a01b031681565b6040516001600160a01b0390911681526020015b60405180910390f35b600a546101a0906001600160a01b031681565b6007546101a0906001600160a01b031681565b6101ec60025481565b6040519081526020016101b4565b610165610208366004610c8f565b6105f3565b60055461021a9060ff1681565b60405190151581526020016101b4565b6101ec60005481565b610165610241366004610cbf565b6106cc565b610165610254366004610c76565b610737565b610165610267366004610c8f565b61087c565b6101ec60045481565b610165610283366004610c76565b610960565b6101ec60035481565b6006546101a0906001600160a01b031681565b6005546101a09061010090046001600160a01b031681565b6101656102ca366004610c8f565b610a35565b6008546101a0906001600160a01b031681565b6101ec60015481565b6102fe6102f9366004610c8f565b610b24565b604080519283526020830191909152016101b4565b610165610321366004610c76565b610b9f565b6006546001600160a01b031633146103595760405162461bcd60e51b815260040161035090610ce1565b60405180910390fd5b600081116103cf5760405162461bcd60e51b815260206004820152603a60248201527f53535f4d61726b6574706c6163655f53657474696e67733a2050656e616c747960448201527f206665652063616e6e6f74206265206c657373207468616e20300000000000006064820152608401610350565b60028190556040518181527f7abee0e7374d207f8d1ed65ce3941229a45dd460a6c661f67737639d625cf75c906020015b60405180910390a150565b6006546001600160a01b031633146104355760405162461bcd60e51b815260040161035090610ce1565b6113888111156104ad5760405162461bcd60e51b815260206004820152603b60248201527f53535f4d61726b6574706c6163655f53657474696e67733a2053656c6c65722060448201527f6665652063616e6e6f74206265206d6f7265207468616e2035302500000000006064820152608401610350565b60018190556040518181527f6fc81a6c6b89de845eb3443971819e69060867b51a83078076f0af1c071f0b7d90602001610400565b6006546001600160a01b031633146105515760405162461bcd60e51b815260206004820152602c60248201527f53535f4d61726b6574706c6163655f53657474696e67733a20556e617574686f60448201526b72697a65642041636365737360a01b6064820152608401610350565b6001600160a01b0381166105775760405162461bcd60e51b815260040161035090610d2b565b6006546001600160a01b03908116908216036105a55760405162461bcd60e51b815260040161035090610d68565b600680546001600160a01b0319166001600160a01b0383169081179091556040519081527f54e4612788f90384e6843298d7854436f3a585b2c3831ab66abf1de63bfa6c2d90602001610400565b6006546001600160a01b0316331461061d5760405162461bcd60e51b815260040161035090610ce1565b6001600160a01b0381166106435760405162461bcd60e51b815260040161035090610d2b565b6005546001600160a01b036101009091048116908216036106765760405162461bcd60e51b815260040161035090610d68565b60058054610100600160a81b0319166101006001600160a01b038416908102919091179091556040519081527fe5693914d19c789bdee50a362998c0bc8d035a835f9871da5d51152f0582c34f90602001610400565b6006546001600160a01b031633146106f65760405162461bcd60e51b815260040161035090610ce1565b6005805460ff19168215159081179091556040519081527f9ff6574771b3821b5a8e085f0c9d60dae46175c8686480e4a75136ff6aee6ad290602001610400565b6006546001600160a01b031633146107615760405162461bcd60e51b815260040161035090610ce1565b600081116107cf5760405162461bcd60e51b815260206004820152603560248201527f53535f4d61726b6574706c6163655f53657474696e67733a2050657263656e7460448201527406167652076616c75652063616e6e6f74206265203605c1b6064820152608401610350565b6127108111156108475760405162461bcd60e51b815260206004820152603c60248201527f53535f4d61726b6574706c6163655f53657474696e67733a2050657263656e7460448201527f6167652063616e6e6f74206265206d6f7265207468616e2031303025000000006064820152608401610350565b60048190556040518181527f8d2f3e094f7cc0f6ffa8c55fb23244f96dbad65b758b89511312ef1b1434550990602001610400565b6006546001600160a01b031633146108a65760405162461bcd60e51b815260040161035090610ce1565b6001600160a01b0381166108cc5760405162461bcd60e51b815260040161035090610d2b565b6007546001600160a01b039081169082160361093e5760405162461bcd60e51b815260206004820152603d6024820152600080516020610dce83398151915260448201527f6265207468652073616d652077686974656c69737420616464726573730000006064820152608401610350565b600780546001600160a01b0319166001600160a01b0392909216919091179055565b6006546001600160a01b0316331461098a5760405162461bcd60e51b815260040161035090610ce1565b60008111610a005760405162461bcd60e51b815260206004820152603860248201527f53535f4d61726b6574706c6163655f53657474696e67733a204475726174696f60448201527f6e206d7573742062652067726561746572207468616e203000000000000000006064820152608401610350565b60038190556040518181527f3ca7c025772f580093fe6be5bd62853eac6c7ddcbbe5202e901d76f2048a5d7c90602001610400565b6006546001600160a01b03163314610a5f5760405162461bcd60e51b815260040161035090610ce1565b6001600160a01b038116610a855760405162461bcd60e51b815260040161035090610d2b565b6008546001600160a01b0390811690821603610b025760405162461bcd60e51b81526020600482015260426024820152600080516020610dce83398151915260448201527f6265207468652073616d652076657374696e674d616e61676572206164647265606482015261737360f01b608482015260a401610350565b600880546001600160a01b0319166001600160a01b0392909216919091179055565b6008546040516373a850af60e11b81526001600160a01b038381166004830152600092839291169063e750a15e906024016040805180830381865afa158015610b71573d6000803e3d6000fd5b505050506040513d601f19601f82011682018060405250810190610b959190610da9565b9094909350915050565b6006546001600160a01b03163314610bc95760405162461bcd60e51b815260040161035090610ce1565b611388811115610c415760405162461bcd60e51b815260206004820152603a60248201527f53535f4d61726b6574706c6163655f53657474696e67733a204275796572206660448201527f65652063616e6e6f74206265206d6f7265207468616e203530250000000000006064820152608401610350565b60008190556040518181527f3e0a9875791ca6bb76fa4f54296c85fd2846864616b13a408e7215d314e657f090602001610400565b600060208284031215610c8857600080fd5b5035919050565b600060208284031215610ca157600080fd5b81356001600160a01b0381168114610cb857600080fd5b9392505050565b600060208284031215610cd157600080fd5b81358015158114610cb857600080fd5b6020808252602a908201527f53535f4d61726b6574706c6163655f53657474696e67733a20556e617574686f6040820152693934bd32b2103ab9b2b960b11b606082015260800190565b6020808252602f90820152600080516020610dce83398151915260408201526e6265207a65726f206164647265737360881b606082015260800190565b6020808252603390820152600080516020610dce8339815191526040820152726265207468652073616d65206164647265737360681b606082015260800190565b60008060408385031215610dbc57600080fd5b50508051602090910151909290915056fe53535f4d61726b6574706c6163655f53657474696e67733a2043616e6e6f7420a2646970667358221220dfea164e116679a243f6a0db56b6d18b8cb43be0e98ee5fbf163c79d9022c71a64736f6c6343000818003353535f4d61726b6574706c6163655f53657474696e67733a20496e76616c6964",
  "linkReferences": {},
  "deployedLinkReferences": {}
}