{
  "_format": "hh-sol-artifact-1",
  "contractName": "SecondSwap_VestingManager",
  "sourceName": "contracts/SecondSwap_VestingManager.sol",
  "abi": [
    {
      "inputs": [
        {
          "internalType": "address",
          "name": "_s2admin",
          "type": "address"
        }
      ],
      "stateMutability": "nonpayable",
      "type": "constructor"
    },
    {
      "anonymous": false,
      "inputs": [
        {
          "indexed": false,
          "internalType": "address",
          "name": "vesting",
          "type": "address"
        },
        {
          "indexed": false,
          "internalType": "int256",
          "name": "fee",
          "type": "int256"
        }
      ],
      "name": "BuyerFeeUpdated",
      "type": "event"
    },
    {
      "anonymous": false,
      "inputs": [
        {
          "indexed": false,
          "internalType": "address",
          "name": "vesting",
          "type": "address"
        },
        {
          "indexed": false,
          "internalType": "uint256",
          "name": "maxSellPercent",
          "type": "uint256"
        }
      ],
      "name": "MaxSellPercentUpdated",
      "type": "event"
    },
    {
      "anonymous": false,
      "inputs": [
        {
          "indexed": false,
          "internalType": "address",
          "name": "vesting",
          "type": "address"
        },
        {
          "indexed": false,
          "internalType": "int256",
          "name": "fee",
          "type": "int256"
        }
      ],
      "name": "SellerFeeUpdated",
      "type": "event"
    },
    {
      "anonymous": false,
      "inputs": [
        {
          "indexed": false,
          "internalType": "address",
          "name": "vesting",
          "type": "address"
        },
        {
          "indexed": false,
          "internalType": "bool",
          "name": "sellable",
          "type": "bool"
        }
      ],
      "name": "VestingSellableUpdated",
      "type": "event"
    },
    {
      "inputs": [
        {
          "internalType": "address",
          "name": "",
          "type": "address"
        },
        {
          "internalType": "address",
          "name": "",
          "type": "address"
        }
      ],
      "name": "allocations",
      "outputs": [
        {
          "internalType": "uint256",
          "name": "bought",
          "type": "uint256"
        },
        {
          "internalType": "uint256",
          "name": "sold",
          "type": "uint256"
        }
      ],
      "stateMutability": "view",
      "type": "function"
    },
    {
      "inputs": [
        {
          "internalType": "address",
          "name": "buyer",
          "type": "address"
        },
        {
          "internalType": "address",
          "name": "vesting",
          "type": "address"
        },
        {
          "internalType": "uint256",
          "name": "amount",
          "type": "uint256"
        }
      ],
      "name": "completePurchase",
      "outputs": [],
      "stateMutability": "nonpayable",
      "type": "function"
    },
    {
      "inputs": [
        {
          "internalType": "address",
          "name": "_vestingPlan",
          "type": "address"
        }
      ],
      "name": "getVestingFees",
      "outputs": [
        {
          "internalType": "int256",
          "name": "buyerFee",
          "type": "int256"
        },
        {
          "internalType": "int256",
          "name": "sellerFee",
          "type": "int256"
        }
      ],
      "stateMutability": "view",
      "type": "function"
    },
    {
      "inputs": [
        {
          "internalType": "address",
          "name": "_vestingPlan",
          "type": "address"
        }
      ],
      "name": "getVestingTokenAddress",
      "outputs": [
        {
          "internalType": "address",
          "name": "_token",
          "type": "address"
        }
      ],
      "stateMutability": "view",
      "type": "function"
    },
    {
      "inputs": [
        {
          "internalType": "address",
          "name": "seller",
          "type": "address"
        },
        {
          "internalType": "address",
          "name": "plan",
          "type": "address"
        },
        {
          "internalType": "uint256",
          "name": "amount",
          "type": "uint256"
        }
      ],
      "name": "listVesting",
      "outputs": [],
      "stateMutability": "nonpayable",
      "type": "function"
    },
    {
      "inputs": [],
      "name": "marketplace",
      "outputs": [
        {
          "internalType": "address",
          "name": "",
          "type": "address"
        }
      ],
      "stateMutability": "view",
      "type": "function"
    },
    {
      "inputs": [],
      "name": "s2Admin",
      "outputs": [
        {
          "internalType": "address",
          "name": "",
          "type": "address"
        }
      ],
      "stateMutability": "view",
      "type": "function"
    },
    {
      "inputs": [
        {
          "internalType": "address",
          "name": "_admin",
          "type": "address"
        }
      ],
      "name": "setAdmin",
      "outputs": [],
      "stateMutability": "nonpayable",
      "type": "function"
    },
    {
      "inputs": [
        {
          "internalType": "address",
          "name": "_vesting",
          "type": "address"
        },
        {
          "internalType": "int256",
          "name": "_fee",
          "type": "int256"
        }
      ],
      "name": "setBuyerFee",
      "outputs": [],
      "stateMutability": "nonpayable",
      "type": "function"
    },
    {
      "inputs": [
        {
          "internalType": "address",
          "name": "_marketplace",
          "type": "address"
        }
      ],
      "name": "setMarketplace",
      "outputs": [],
      "stateMutability": "nonpayable",
      "type": "function"
    },
    {
      "inputs": [
        {
          "internalType": "address",
          "name": "vesting",
          "type": "address"
        },
        {
          "internalType": "uint256",
          "name": "maxSellPercent",
          "type": "uint256"
        }
      ],
      "name": "setMaxSellPercent",
      "outputs": [],
      "stateMutability": "nonpayable",
      "type": "function"
    },
    {
      "inputs": [
        {
          "internalType": "address",
          "name": "vesting",
          "type": "address"
        },
        {
          "internalType": "bool",
          "name": "sellable",
          "type": "bool"
        }
      ],
      "name": "setSellable",
      "outputs": [],
      "stateMutability": "nonpayable",
      "type": "function"
    },
    {
      "inputs": [
        {
          "internalType": "address",
          "name": "_vesting",
          "type": "address"
        },
        {
          "internalType": "int256",
          "name": "_fee",
          "type": "int256"
        }
      ],
      "name": "setSellerFee",
      "outputs": [],
      "stateMutability": "nonpayable",
      "type": "function"
    },
    {
      "inputs": [
        {
          "internalType": "address",
          "name": "_vestingDeployer",
          "type": "address"
        }
      ],
      "name": "setVestingDeployer",
      "outputs": [],
      "stateMutability": "nonpayable",
      "type": "function"
    },
    {
      "inputs": [
        {
          "internalType": "address",
          "name": "seller",
          "type": "address"
        },
        {
          "internalType": "address",
          "name": "plan",
          "type": "address"
        },
        {
          "internalType": "uint256",
          "name": "amount",
          "type": "uint256"
        }
      ],
      "name": "unlistVesting",
      "outputs": [],
      "stateMutability": "nonpayable",
      "type": "function"
    },
    {
      "inputs": [],
      "name": "vestingDeployer",
      "outputs": [
        {
          "internalType": "address",
          "name": "",
          "type": "address"
        }
      ],
      "stateMutability": "view",
      "type": "function"
    },
    {
      "inputs": [
        {
          "internalType": "address",
          "name": "",
          "type": "address"
        }
      ],
      "name": "vestingSettings",
      "outputs": [
        {
          "internalType": "bool",
          "name": "sellable",
          "type": "bool"
        },
        {
          "internalType": "uint256",
          "name": "maxSellPercent",
          "type": "uint256"
        },
        {
          "internalType": "int256",
          "name": "buyerFee",
          "type": "int256"
        },
        {
          "internalType": "int256",
          "name": "sellerFee",
          "type": "int256"
        }
      ],
      "stateMutability": "view",
      "type": "function"
    }
  ],
  "bytecode": "0x608060405261271060055534801561001657600080fd5b506040516111383803806111388339810160408190526100359161005a565b600380546001600160a01b0319166001600160a01b039290921691909117905561008a565b60006020828403121561006c57600080fd5b81516001600160a01b038116811461008357600080fd5b9392505050565b61109f806100996000396000f3fe608060405234801561001057600080fd5b506004361061010b5760003560e01c806373ad6c2d116100a2578063a731066e11610071578063a731066e1461028c578063abc8c7af1461029f578063ae7d99ea146102b2578063c0c6976c146102c5578063e750a15e146102d857600080fd5b806373ad6c2d1461020f57806376183af214610222578063853996e41461023557806385f762891461027957600080fd5b80635ac2ee3d116100de5780635ac2ee3d1461017b57806362d9310a146101d6578063670dcd7a146101e9578063704b6c02146101fc57600080fd5b8063034d1f6b146101105780632122a735146101255780632e97d9a81461013857806348560e0914610168575b600080fd5b61012361011e366004610e31565b61030c565b005b610123610133366004610e31565b6103ea565b60045461014b906001600160a01b031681565b6040516001600160a01b0390911681526020015b60405180910390f35b610123610176366004610e72565b61044b565b6101b4610189366004610eb0565b600060208190529081526040902080546001820154600283015460039093015460ff90921692909184565b604080519415158552602085019390935291830152606082015260800161015f565b6101236101e4366004610ed4565b6105a7565b6101236101f7366004610e31565b6106a6565b61012361020a366004610eb0565b610a08565b61012361021d366004610eb0565b610a54565b610123610230366004610ed4565b610aa0565b610264610243366004610f00565b60016020818152600093845260408085209091529183529120805491015482565b6040805192835260208301919091520161015f565b610123610287366004610ed4565b610b98565b61014b61029a366004610eb0565b610cbc565b60025461014b906001600160a01b031681565b60035461014b906001600160a01b031681565b6101236102d3366004610eb0565b610d51565b6102646102e6366004610eb0565b6001600160a01b0316600090815260208190526040902060028101546003909101549091565b6002546001600160a01b0316331461033f5760405162461bcd60e51b815260040161033690610f2e565b60405180910390fd5b6001600160a01b03808416600090815260016020818152604080842094871684529390529181209091018054839290610379908490610f90565b909155505060405162979d8b60e71b81523060048201526001600160a01b03848116602483015260448201839052831690634bcec58090606401600060405180830381600087803b1580156103cd57600080fd5b505af11580156103e1573d6000803e3d6000fd5b50505050505050565b6002546001600160a01b031633146104145760405162461bcd60e51b815260040161033690610f2e565b6001600160a01b03808416600090815260016020908152604080832093861683529290529081208054839290610379908490610fa3565b6003546001600160a01b031633148061046e57506004546001600160a01b031633145b6104c65760405162461bcd60e51b8152602060048201526024808201527f53535f56657374696e674d616e616765723a20556e617574686f7269736564206044820152633ab9b2b960e11b6064820152608401610336565b6001600160a01b0382166000908152602081905260409020805460ff191682151517815560018101541580156104fd5750805460ff165b1561055f576107d060018201819055600019600283018190556003830155604080516001600160a01b038616815260208101929092527f4caef3451730b81912b40b8997d8ddb6becc217042f5af3ba5cb6679effbe2cd910160405180910390a15b604080516001600160a01b038516815283151560208201527ffead8585b45647dc527e7081888eed61f4d3333e1a6e50c045a3dabf373f036f910160405180910390a1505050565b6003546001600160a01b031633146105d15760405162461bcd60e51b815260040161033690610fb6565b60001981121580156105e557506113888113155b61064c5760405162461bcd60e51b815260206004820152603260248201527f53535f56657374696e674d616e616765723a204275796572204665652063616e60448201527106e6f74206265206c657373207468616e20360741b6064820152608401610336565b6001600160a01b03821660008181526020818152604091829020600201849055815192835282018390527f5d659726bb24d95edfdc8124b4fc9711b5795f7076338a44b70c52eb7df354a791015b60405180910390a15050565b6002546001600160a01b031633146106d05760405162461bcd60e51b815260040161033690610f2e565b6001600160a01b03821660009081526020819052604090205460ff1661072f5760405162461bcd60e51b815260206004820152601460248201527376657374696e67206e6f742073656c6c61626c6560601b6044820152606401610336565b6040516310098ad560e01b81526001600160a01b0384811660048301528291908416906310098ad590602401602060405180830381865afa158015610778573d6000803e3d6000fd5b505050506040513d601f19601f8201168201806040525081019061079c9190610ffa565b10156108005760405162461bcd60e51b815260206004820152602d60248201527f53535f56657374696e674d616e616765723a20696e73756666696369656e742060448201526c617661696c61626c696c69747960981b6064820152608401610336565b6001600160a01b038381166000818152600160209081526040808320948716808452949091528082208054915163349453a160e21b8152600481019490945293909263d2514e8490602401602060405180830381865afa158015610868573d6000803e3d6000fd5b505050506040513d601f19601f8201168201806040525081019061088c9190610ffa565b83546001850154919250906108a19083610fa3565b1115610906576005546001600160a01b03861660009081526020819052604090206001908101548554918601549091906108db9085610fa3565b6108e59190610f90565b6108ef9190611013565b6108f9919061102a565b6109039083610fa3565b91505b8383600101600082825461091a9190610fa3565b909155505060018301548210156109995760405162461bcd60e51b815260206004820152603960248201527f53535f56657374696e674d616e616765723a2063616e6e6f74206c697374206d60448201527f6f7265207468616e206d61782073656c6c2070657263656e74000000000000006064820152608401610336565b60405162979d8b60e71b81526001600160a01b03878116600483015230602483015260448201869052861690634bcec58090606401600060405180830381600087803b1580156109e857600080fd5b505af11580156109fc573d6000803e3d6000fd5b50505050505050505050565b6003546001600160a01b03163314610a325760405162461bcd60e51b815260040161033690610fb6565b600380546001600160a01b0319166001600160a01b0392909216919091179055565b6003546001600160a01b03163314610a7e5760405162461bcd60e51b815260040161033690610fb6565b600280546001600160a01b0319166001600160a01b0392909216919091179055565b6003546001600160a01b03163314610aca5760405162461bcd60e51b815260040161033690610fb6565b6000198112158015610ade57506113888113155b610b465760405162461bcd60e51b815260206004820152603360248201527f53535f56657374696e674d616e616765723a2053656c6c65722066656520636160448201527206e6e6f74206265206c657373207468616e203606c1b6064820152608401610336565b6001600160a01b03821660008181526020818152604091829020600301849055815192835282018390527f1b0f98c9c872d232b66d5058ee587f24c4d0969e5f886d9a1b2877ffd59320e2910161069a565b336001600160a01b0316826001600160a01b031663f243c2a76040518163ffffffff1660e01b8152600401602060405180830381865afa158015610be0573d6000803e3d6000fd5b505050506040513d601f19601f82011682018060405250810190610c04919061104c565b6001600160a01b031614610c6a5760405162461bcd60e51b815260206004820152602760248201527f53535f56657374696e674d616e616765723a20496e76616c696420546f6b656e6044820152661024b9b9bab2b960c91b6064820152608401610336565b6001600160a01b03821660008181526020818152604091829020600101849055815192835282018390527f4caef3451730b81912b40b8997d8ddb6becc217042f5af3ba5cb6679effbe2cd910161069a565b6002546000906001600160a01b03163314610ce95760405162461bcd60e51b815260040161033690610f2e565b816001600160a01b031663fc0c546a6040518163ffffffff1660e01b8152600401602060405180830381865afa158015610d27573d6000803e3d6000fd5b505050506040513d601f19601f82011682018060405250810190610d4b919061104c565b92915050565b6003546001600160a01b03163314610d7b5760405162461bcd60e51b815260040161033690610fb6565b6004546001600160a01b0390811690821603610df75760405162461bcd60e51b815260206004820152603560248201527f53535f56657374696e674d616e616765723a2056657374696e674465706c6f7960448201527465722063616e6e6f74206265207468652073616d6560581b6064820152608401610336565b600480546001600160a01b0319166001600160a01b0392909216919091179055565b6001600160a01b0381168114610e2e57600080fd5b50565b600080600060608486031215610e4657600080fd5b8335610e5181610e19565b92506020840135610e6181610e19565b929592945050506040919091013590565b60008060408385031215610e8557600080fd5b8235610e9081610e19565b915060208301358015158114610ea557600080fd5b809150509250929050565b600060208284031215610ec257600080fd5b8135610ecd81610e19565b9392505050565b60008060408385031215610ee757600080fd5b8235610ef281610e19565b946020939093013593505050565b60008060408385031215610f1357600080fd5b8235610f1e81610e19565b91506020830135610ea581610e19565b6020808252602c908201527f53535f56657374696e674d616e616765723a2063616c6c6572206973206e6f7460408201526b206d61726b6574706c61636560a01b606082015260800190565b634e487b7160e01b600052601160045260246000fd5b81810381811115610d4b57610d4b610f7a565b80820180821115610d4b57610d4b610f7a565b60208082526024908201527f53535f56657374696e674d616e616765723a20556e617574686f72697a6564206040820152633ab9b2b960e11b606082015260800190565b60006020828403121561100c57600080fd5b5051919050565b8082028115828204841417610d4b57610d4b610f7a565b60008261104757634e487b7160e01b600052601260045260246000fd5b500490565b60006020828403121561105e57600080fd5b8151610ecd81610e1956fea2646970667358221220a4a32d69f7abd1a8ed7203194fa489668e712e65b34448dbf5820c690d89367364736f6c63430008180033",
  "linkReferences": {},
  "deployedLinkReferences": {}
}