{
  "_format": "hh-sol-artifact-1",
  "contractName": "SecondSwap_WhitelistDeployer",
  "sourceName": "contracts/SecondSwap_WhitelistDeployer.sol",
  "abi": [
    {
      "anonymous": false,
      "inputs": [
        {
          "indexed": true,
          "internalType": "address",
          "name": "whitelistContract",
          "type": "address"
        },
        {
          "indexed": false,
          "internalType": "address",
          "name": "_lotOwner",
          "type": "address"
        }
      ],
      "name": "WhitelistCreated",
      "type": "event"
    },
    {
      "inputs": [
        {
          "internalType": "uint256",
          "name": "_maxWhitelist",
          "type": "uint256"
        },
        {
          "internalType": "address",
          "name": "_lotOwner",
          "type": "address"
        }
      ],
      "name": "deployWhitelist",
      "outputs": [
        {
          "internalType": "address",
          "name": "",
          "type": "address"
        }
      ],
      "stateMutability": "nonpayable",
      "type": "function"
    }
  ],
  "bytecode": "0x608060405234801561001057600080fd5b506106bd806100206000396000f3fe608060405234801561001057600080fd5b506004361061002b5760003560e01c80634fbb982814610030575b600080fd5b61004361003e3660046100f9565b61005f565b6040516001600160a01b03909116815260200160405180910390f35b6000808383604051610070906100ec565b9182526001600160a01b03166020820152604001604051809103906000f0801580156100a0573d6000803e3d6000fd5b506040516001600160a01b038581168252919250908216907fae275ee7d9ad8d2d5938df3c14dc84f24e0da8944f8acaa8d9ae6bb897a43cd39060200160405180910390a29392505050565b6105528061013683390190565b6000806040838503121561010c57600080fd5b8235915060208301356001600160a01b038116811461012a57600080fd5b80915050925092905056fe60a060405234801561001057600080fd5b5060405161055238038061055283398101604081905261002f91610046565b6000919091556001600160a01b0316608052610083565b6000806040838503121561005957600080fd5b825160208401519092506001600160a01b038116811461007857600080fd5b809150509250929050565b6080516104ae6100a4600039600081816087015261016d01526104ae6000f3fe608060405234801561001057600080fd5b506004361061007d5760003560e01c80637ef8513a1161005b5780637ef8513a14610117578063bf0d96c31461013a578063d528f7ee14610151578063e5002a051461015a57600080fd5b80632f84ef7b146100825780635e8e30a6146100c657806372d9eb1e14610102575b600080fd5b6100a97f000000000000000000000000000000000000000000000000000000000000000081565b6040516001600160a01b0390911681526020015b60405180910390f35b6100f26100d436600461039b565b6001600160a01b031660009081526002602052604090205460ff1690565b60405190151581526020016100bd565b6101156101103660046103cb565b610162565b005b6100f261012536600461039b565b60026020526000908152604090205460ff1681565b61014360005481565b6040519081526020016100bd565b61014360015481565b610115610265565b336001600160a01b037f000000000000000000000000000000000000000000000000000000000000000016146101df5760405162461bcd60e51b815260206004820152601b60248201527f53535f57686974656c6973743a206e6f74206c6f74206f776e6572000000000060448201526064015b60405180910390fd5b60005481116102005760405162461bcd60e51b81526004016101d6906103e4565b60015481116102215760405162461bcd60e51b81526004016101d6906103e4565b600081905560015460408051918252602082018390527fa2ce3318486c09b3e3d5f7ed88e7db58d2bbe3ccccfa7f5a1123636d96b00462910160405180910390a150565b600054600154106102c65760405162461bcd60e51b815260206004820152602560248201527f53535f57686974656c6973743a20526561636865642077686974656c697374206044820152641b1a5b5a5d60da1b60648201526084016101d6565b3360009081526002602052604090205460ff16156103305760405162461bcd60e51b815260206004820152602160248201527f53535f57686974656c6973743a20557365722069732077686974656c697374656044820152601960fa1b60648201526084016101d6565b336000908152600260205260408120805460ff1916600190811790915580549161035983610451565b9091555050600154604080519182523360208301527fa04e654421b15f63d751f75512827471f4c42d43243ba5ad443bb2e834e64dbf910160405180910390a1565b6000602082840312156103ad57600080fd5b81356001600160a01b03811681146103c457600080fd5b9392505050565b6000602082840312156103dd57600080fd5b5035919050565b60208082526047908201527f53535f57686974656c6973743a20616d6f756e742063616e6e6f74206265206c60408201527f65737365722074686174207468652063757272656e742077686974656c69737460608201526608185b5bdd5b9d60ca1b608082015260a00190565b60006001820161047157634e487b7160e01b600052601160045260246000fd5b506001019056fea2646970667358221220ae65e30ec2fa2c71c58ddf3fe625cda91079c9274aba4324c2fd1cc7e89f8ec764736f6c63430008180033a2646970667358221220297c9f270379d7b14200da1ea232e14f98265db359b2daa90383a2e303f2a99e64736f6c63430008180033",
  "linkReferences": {},
  "deployedLinkReferences": {}
}