{
  "_format": "hh-sol-artifact-1",
  "contractName": "SecondSwap_Marketplace",
  "sourceName": "contracts/SecondSwap_Marketplace.sol",
  "abi": [
    {
      "inputs": [
        {
          "internalType": "address",
          "name": "target",
          "type": "address"
        }
      ],
      "name": "AddressEmptyCode",
      "type": "error"
    },
    {
      "inputs": [
        {
          "internalType": "address",
          "name": "account",
          "type": "address"
        }
      ],
      "name": "AddressInsufficientBalance",
      "type": "error"
    },
    {
      "inputs": [],
      "name": "FailedInnerCall",
      "type": "error"
    },
    {
      "inputs": [],
      "name": "InvalidInitialization",
      "type": "error"
    },
    {
      "inputs": [],
      "name": "NotInitializing",
      "type": "error"
    },
    {
      "inputs": [
        {
          "internalType": "address",
          "name": "token",
          "type": "address"
        }
      ],
      "name": "SafeERC20FailedOperation",
      "type": "error"
    },
    {
      "anonymous": false,
      "inputs": [
        {
          "indexed": true,
          "internalType": "address",
          "name": "token",
          "type": "address"
        }
      ],
      "name": "CoinAdded",
      "type": "event"
    },
    {
      "anonymous": false,
      "inputs": [
        {
          "indexed": true,
          "internalType": "address",
          "name": "vestingPlan",
          "type": "address"
        },
        {
          "indexed": true,
          "internalType": "uint256",
          "name": "listingId",
          "type": "uint256"
        },
        {
          "indexed": false,
          "internalType": "uint256",
          "name": "penaltyFee",
          "type": "uint256"
        },
        {
          "indexed": false,
          "internalType": "address",
          "name": "seller",
          "type": "address"
        }
      ],
      "name": "Delisted",
      "type": "event"
    },
    {
      "anonymous": false,
      "inputs": [
        {
          "indexed": false,
          "internalType": "uint64",
          "name": "version",
          "type": "uint64"
        }
      ],
      "name": "Initialized",
      "type": "event"
    },
    {
      "anonymous": false,
      "inputs": [
        {
          "indexed": true,
          "internalType": "address",
          "name": "vestingPlan",
          "type": "address"
        },
        {
          "indexed": true,
          "internalType": "uint256",
          "name": "listingId",
          "type": "uint256"
        }
      ],
      "name": "Listed",
      "type": "event"
    },
    {
      "anonymous": false,
      "inputs": [
        {
          "indexed": true,
          "internalType": "address",
          "name": "vestingPlan",
          "type": "address"
        },
        {
          "indexed": true,
          "internalType": "uint256",
          "name": "listingId",
          "type": "uint256"
        },
        {
          "indexed": false,
          "internalType": "address",
          "name": "buyer",
          "type": "address"
        },
        {
          "indexed": false,
          "internalType": "uint256",
          "name": "amount",
          "type": "uint256"
        },
        {
          "indexed": false,
          "internalType": "address",
          "name": "referral",
          "type": "address"
        },
        {
          "indexed": false,
          "internalType": "uint256",
          "name": "buyerFee",
          "type": "uint256"
        },
        {
          "indexed": false,
          "internalType": "uint256",
          "name": "sellerFee",
          "type": "uint256"
        },
        {
          "indexed": false,
          "internalType": "uint256",
          "name": "referralReward",
          "type": "uint256"
        }
      ],
      "name": "Purchased",
      "type": "event"
    },
    {
      "anonymous": false,
      "inputs": [
        {
          "indexed": true,
          "internalType": "address",
          "name": "vestingPlan",
          "type": "address"
        },
        {
          "indexed": true,
          "internalType": "uint256",
          "name": "listingId",
          "type": "uint256"
        },
        {
          "indexed": false,
          "internalType": "address",
          "name": "whitelistAddress",
          "type": "address"
        },
        {
          "indexed": false,
          "internalType": "address",
          "name": "seller",
          "type": "address"
        },
        {
          "indexed": false,
          "internalType": "uint256",
          "name": "maxWhitelist",
          "type": "uint256"
        }
      ],
      "name": "WhitelistCreated",
      "type": "event"
    },
    {
      "inputs": [],
      "name": "BASE",
      "outputs": [
        {
          "internalType": "uint256",
          "name": "",
          "type": "uint256"
        }
      ],
      "stateMutability": "view",
      "type": "function"
    },
    {
      "inputs": [
        {
          "internalType": "address",
          "name": "_token",
          "type": "address"
        }
      ],
      "name": "addCoin",
      "outputs": [],
      "stateMutability": "nonpayable",
      "type": "function"
    },
    {
      "inputs": [
        {
          "internalType": "address",
          "name": "target",
          "type": "address"
        },
        {
          "internalType": "string",
          "name": "functionSignature",
          "type": "string"
        }
      ],
      "name": "doesFunctionExist",
      "outputs": [
        {
          "internalType": "bool",
          "name": "",
          "type": "bool"
        }
      ],
      "stateMutability": "view",
      "type": "function"
    },
    {
      "inputs": [
        {
          "internalType": "address",
          "name": "_token",
          "type": "address"
        },
        {
          "internalType": "address",
          "name": "_marketplaceSetting",
          "type": "address"
        }
      ],
      "name": "initialize",
      "outputs": [],
      "stateMutability": "nonpayable",
      "type": "function"
    },
    {
      "inputs": [
        {
          "internalType": "address",
          "name": "",
          "type": "address"
        }
      ],
      "name": "isTokenSupport",
      "outputs": [
        {
          "internalType": "bool",
          "name": "",
          "type": "bool"
        }
      ],
      "stateMutability": "view",
      "type": "function"
    },
    {
      "inputs": [
        {
          "internalType": "address",
          "name": "_vestingPlan",
          "type": "address"
        },
        {
          "internalType": "uint256",
          "name": "_amount",
          "type": "uint256"
        },
        {
          "internalType": "uint256",
          "name": "_price",
          "type": "uint256"
        },
        {
          "internalType": "uint256",
          "name": "_discountPct",
          "type": "uint256"
        },
        {
          "internalType": "enum SecondSwap_Marketplace.ListingType",
          "name": "_listingType",
          "type": "uint8"
        },
        {
          "internalType": "enum SecondSwap_Marketplace.DiscountType",
          "name": "_discountType",
          "type": "uint8"
        },
        {
          "internalType": "uint256",
          "name": "_maxWhitelist",
          "type": "uint256"
        },
        {
          "internalType": "address",
          "name": "_currency",
          "type": "address"
        },
        {
          "internalType": "uint256",
          "name": "_minPurchaseAmt",
          "type": "uint256"
        },
        {
          "internalType": "bool",
          "name": "_isPrivate",
          "type": "bool"
        }
      ],
      "name": "listVesting",
      "outputs": [],
      "stateMutability": "nonpayable",
      "type": "function"
    },
    {
      "inputs": [
        {
          "internalType": "address",
          "name": "",
          "type": "address"
        },
        {
          "internalType": "uint256",
          "name": "",
          "type": "uint256"
        }
      ],
      "name": "listings",
      "outputs": [
        {
          "internalType": "address",
          "name": "seller",
          "type": "address"
        },
        {
          "internalType": "uint256",
          "name": "total",
          "type": "uint256"
        },
        {
          "internalType": "uint256",
          "name": "balance",
          "type": "uint256"
        },
        {
          "internalType": "uint256",
          "name": "pricePerUnit",
          "type": "uint256"
        },
        {
          "internalType": "enum SecondSwap_Marketplace.ListingType",
          "name": "listingType",
          "type": "uint8"
        },
        {
          "internalType": "enum SecondSwap_Marketplace.DiscountType",
          "name": "discountType",
          "type": "uint8"
        },
        {
          "internalType": "uint256",
          "name": "discountPct",
          "type": "uint256"
        },
        {
          "internalType": "uint256",
          "name": "listTime",
          "type": "uint256"
        },
        {
          "internalType": "address",
          "name": "whitelist",
          "type": "address"
        },
        {
          "internalType": "uint256",
          "name": "minPurchaseAmt",
          "type": "uint256"
        },
        {
          "internalType": "enum SecondSwap_Marketplace.Status",
          "name": "status",
          "type": "uint8"
        },
        {
          "internalType": "address",
          "name": "currency",
          "type": "address"
        },
        {
          "internalType": "address",
          "name": "vestingPlan",
          "type": "address"
        }
      ],
      "stateMutability": "view",
      "type": "function"
    },
    {
      "inputs": [],
      "name": "marketplaceSetting",
      "outputs": [
        {
          "internalType": "address",
          "name": "",
          "type": "address"
        }
      ],
      "stateMutability": "view",
      "type": "function"
    },
    {
      "inputs": [
        {
          "internalType": "address",
          "name": "",
          "type": "address"
        }
      ],
      "name": "nextListingId",
      "outputs": [
        {
          "internalType": "uint256",
          "name": "",
          "type": "uint256"
        }
      ],
      "stateMutability": "view",
      "type": "function"
    },
    {
      "inputs": [
        {
          "internalType": "address",
          "name": "_marketplaceSetting",
          "type": "address"
        }
      ],
      "name": "setMarketplaceSettingAddress",
      "outputs": [],
      "stateMutability": "nonpayable",
      "type": "function"
    },
    {
      "inputs": [
        {
          "internalType": "address",
          "name": "_vestingPlan",
          "type": "address"
        },
        {
          "internalType": "uint256",
          "name": "_listingId",
          "type": "uint256"
        },
        {
          "internalType": "uint256",
          "name": "_amount",
          "type": "uint256"
        },
        {
          "internalType": "address",
          "name": "_referral",
          "type": "address"
        }
      ],
      "name": "spotPurchase",
      "outputs": [],
      "stateMutability": "nonpayable",
      "type": "function"
    },
    {
      "inputs": [
        {
          "internalType": "address",
          "name": "_vestingPlan",
          "type": "address"
        },
        {
          "internalType": "uint256",
          "name": "_listingId",
          "type": "uint256"
        }
      ],
      "name": "unlistVesting",
      "outputs": [],
      "stateMutability": "nonpayable",
      "type": "function"
    },
    {
      "inputs": [],
      "name": "version",
      "outputs": [
        {
          "internalType": "string",
          "name": "",
          "type": "string"
        }
      ],
      "stateMutability": "pure",
      "type": "function"
    }
  ],
  "bytecode": "0x608060405234801561001057600080fd5b50612f30806100206000396000f3fe608060405234801561001057600080fd5b50600436106100ce5760003560e01c80633b6ea8761161008c57806354fd4d501161006657806354fd4d501461027257806360815e1514610299578063d3ba6877146102ac578063ec342ad0146102bf57600080fd5b80633b6ea8761461023957806340e7f2331461024c578063485cc9551461025f57600080fd5b806207df30146100d35780630db90b1d146101855780630fe2bce3146101b357806311e37cd1146101c857806316da8632146101fb5780633820f3d21461020e575b600080fd5b6101636100e1366004612836565b6001602081815260009384526040808520909152918352912080549181015460028201546003830154600484015460058501546006860154600787015460088801546009890154600a909901546001600160a01b039a8b169a98999798969760ff8088169861010098899004821698958116959183169391909204821691168d565b60405161017c9d9c9b9a9998979695949392919061288c565b60405180910390f35b6101a561019336600461293e565b60026020526000908152604090205481565b60405190815260200161017c565b6101c66101c136600461295b565b6102c8565b005b6101eb6101d636600461293e565b60036020526000908152604090205460ff1681565b604051901515815260200161017c565b6101c661020936600461293e565b610560565b600054610221906001600160a01b031681565b6040516001600160a01b03909116815260200161017c565b6101c66102473660046129be565b6106a7565b6101c661025a36600461293e565b61120a565b6101c661026d366004612a63565b611336565b60408051808201825260058152640312e302e360dc1b6020820152905161017c9190612ac0565b6101c66102a7366004612836565b611479565b6101eb6102ba366004612b09565b611c54565b6101a561271081565b60008054906101000a90046001600160a01b03166001600160a01b03166352a0d0d96040518163ffffffff1660e01b8152600401602060405180830381865afa158015610319573d6000803e3d6000fd5b505050506040513d601f19601f8201168201806040525081019061033d9190612bcd565b156103635760405162461bcd60e51b815260040161035a90612bea565b60405180910390fd5b6001600160a01b03841660009081526001602090815260408083208684529091529020610391818484611cf1565b60008061039d87611fb4565b9150915060006103ad8487612141565b905060008060006103c2878a8689898d61220f565b925092509250888760020160008282546103dc9190612c4f565b90915550506002870154156103f25760006103f5565b60015b60098801805460ff1916600183600281111561041357610413612862565b021790555060008054906101000a90046001600160a01b03166001600160a01b031663db27b8dd6040518163ffffffff1660e01b8152600401602060405180830381865afa158015610469573d6000803e3d6000fd5b505050506040513d601f19601f8201168201806040525081019061048d9190612c62565b6001600160a01b0316632122a735338d8c6040518463ffffffff1660e01b81526004016104bc93929190612c7f565b600060405180830381600087803b1580156104d657600080fd5b505af11580156104ea573d6000803e3d6000fd5b505060408051338152602081018d90526001600160a01b038c811682840152606082018890526080820187905260a0820186905291518e9450918f1692507f4a0de796d814af6c4946bbe009f84c15351bbe0dcffcdaae98621a71b82c6277919081900360c00190a35050505050505050505050565b60008054906101000a90046001600160a01b03166001600160a01b031663ae7d99ea6040518163ffffffff1660e01b8152600401602060405180830381865afa1580156105b1573d6000803e3d6000fd5b505050506040513d601f19601f820116820180604052508101906105d59190612c62565b6001600160a01b0316336001600160a01b0316146106055760405162461bcd60e51b815260040161035a90612ca3565b6001600160a01b03811660009081526003602052604090205460ff16156106835760405162461bcd60e51b815260206004820152602c60248201527f53535f4d61726b6574706c6163653a20546f6b656e2069732063757272656e7460448201526b1b1e481cdd5c1c1bdc9d195960a21b606482015260840161035a565b6001600160a01b03166000908152600360205260409020805460ff19166001179055565b60008054906101000a90046001600160a01b03166001600160a01b03166352a0d0d96040518163ffffffff1660e01b8152600401602060405180830381865afa1580156106f8573d6000803e3d6000fd5b505050506040513d601f19601f8201168201806040525081019061071c9190612bcd565b156107395760405162461bcd60e51b815260040161035a90612bea565b600186600181111561074d5761074d612862565b14158061076557506000821180156107655750888211155b6107ea5760405162461bcd60e51b815260206004820152604a60248201527f53535f4d61726b6574706c6163653a204d696e696d756d20507572636861736560448201527f20416d6f756e742063616e6e6f74206265206d6f7265207468616e206c6973746064820152691a5b99c8185b5bdd5b9d60b21b608482015260a40161035a565b6000881161084f5760405162461bcd60e51b815260206004820152602c60248201527f53535f4d61726b6574706c6163653a205072696365206d75737420626520677260448201526b06561746572207468616e20360a41b606482015260840161035a565b600085600281111561086357610863612862565b141580156108715750600087115b8061088d5750600085600281111561088b5761088b612862565b145b6108e95760405162461bcd60e51b815260206004820152602760248201527f53535f4d61726b6574706c6163653a20496e76616c696420646973636f756e7460448201526608185b5bdd5b9d60ca1b606482015260840161035a565b600089116109485760405162461bcd60e51b815260206004820152602660248201527f53535f4d61726b6574706c6163653a20496e76616c6964206c697374696e6720604482015265185b5bdd5b9d60d21b606482015260840161035a565b6001600160a01b03831660009081526003602052604090205460ff166109c75760405162461bcd60e51b815260206004820152602e60248201527f53535f4d61726b6574706c6163653a205061796d656e7420746f6b656e20697360448201526d081b9bdd081cdd5c1c1bdc9d195960921b606482015260840161035a565b6000546040805163db27b8dd60e01b81529051610aca926001600160a01b03169163db27b8dd9160048083019260209291908290030181865afa158015610a12573d6000803e3d6000fd5b505050506040513d601f19601f82011682018060405250810190610a369190612c62565b604051635398833760e11b81526001600160a01b038d81166004830152919091169063a731066e90602401602060405180830381865afa158015610a7e573d6000803e3d6000fd5b505050506040513d601f19601f82011682018060405250810190610aa29190612c62565b6040518060400160405280600a815260200169646563696d616c73282960b01b815250611c54565b610b225760405162461bcd60e51b8152602060048201526024808201527f53535f4d61726b6574706c6163653a204e6f20646563696d616c732066756e636044820152633a34b7b760e11b606482015260840161035a565b60008060009054906101000a90046001600160a01b03166001600160a01b031663db27b8dd6040518163ffffffff1660e01b8152600401602060405180830381865afa158015610b76573d6000803e3d6000fd5b505050506040513d601f19601f82011682018060405250810190610b9a9190612c62565b604051635398833760e11b81526001600160a01b038d81166004830152919091169063a731066e90602401602060405180830381865afa158015610be2573d6000803e3d6000fd5b505050506040513d601f19601f82011682018060405250810190610c069190612c62565b6001600160a01b031663313ce5676040518163ffffffff1660e01b8152600401602060405180830381865afa158015610c43573d6000803e3d6000fd5b505050506040513d601f19601f82011682018060405250810190610c679190612ce4565b610c7290600a612deb565b610c7c8a8c612dfa565b610c869190612e11565b905060008111610cf45760405162461bcd60e51b815260206004820152603360248201527f53535f4d61726b6574706c6163653a2043616e6e6f74206c69737420616d6f756044820152726e7420697420697320746f6f206c6974746c6560681b606482015260840161035a565b60008054906101000a90046001600160a01b03166001600160a01b031663db27b8dd6040518163ffffffff1660e01b8152600401602060405180830381865afa158015610d45573d6000803e3d6000fd5b505050506040513d601f19601f82011682018060405250810190610d699190612c62565b6001600160a01b031663670dcd7a338d8d6040518463ffffffff1660e01b8152600401610d9893929190612c7f565b600060405180830381600087803b158015610db257600080fd5b505af1158015610dc6573d6000803e3d6000fd5b505050506001600160a01b038b16600090815260026020526040812080549082610def83612e33565b91905055905060008315610f995760008711610e685760405162461bcd60e51b815260206004820152603260248201527f53535f4d61726b6574706c6163653a204d696e696d756d2077686974656c697360448201527107420757365722063616e6e6f7420626520360741b606482015260840161035a565b60008054906101000a90046001600160a01b03166001600160a01b03166337eb7e016040518163ffffffff1660e01b8152600401602060405180830381865afa158015610eb9573d6000803e3d6000fd5b505050506040513d601f19601f82011682018060405250810190610edd9190612c62565b6040516309f7730560e31b8152600481018990523360248201526001600160a01b039190911690634fbb9828906044016020604051808303816000875af1158015610f2c573d6000803e3d6000fd5b505050506040513d601f19601f82011682018060405250810190610f509190612c62565b9050818d6001600160a01b03167f7809577f7bfa0b64417984f420f316e1e4f54f9a2211d9d16cba35496bf01c7d83338b604051610f9093929190612c7f565b60405180910390a35b604051806101a00160405280336001600160a01b031681526020018d81526020018d81526020018c81526020018a6001811115610fd857610fd8612862565b8152602001896002811115610fef57610fef612862565b8152602081018c90524260408201526001600160a01b03831660608201526080810187905260a00160008152602001876001600160a01b031681526020018e6001600160a01b0316815250600160008f6001600160a01b03166001600160a01b03168152602001908152602001600020600084815260200190815260200160002060008201518160000160006101000a8154816001600160a01b0302191690836001600160a01b0316021790555060208201518160010155604082015181600201556060820151816003015560808201518160040160006101000a81548160ff021916908360018111156110e5576110e5612862565b021790555060a082015160048201805461ff00191661010083600281111561110f5761110f612862565b021790555060c0820151600582015560e082015160068201556101008201516007820180546001600160a01b0319166001600160a01b03909216919091179055610120820151600882015561014082015160098201805460ff1916600183600281111561117e5761117e612862565b0217905550610160820151600982018054610100600160a81b0319166101006001600160a01b039384160217905561018090920151600a90910180546001600160a01b03191691831691909117905560405183918f16907fd14ef11f338338d2437da611a3ed1214407116682c6f46e2ea1c46407733cfa290600090a350505050505050505050505050565b60008054906101000a90046001600160a01b03166001600160a01b031663ae7d99ea6040518163ffffffff1660e01b8152600401602060405180830381865afa15801561125b573d6000803e3d6000fd5b505050506040513d601f19601f8201168201806040525081019061127f9190612c62565b6001600160a01b0316336001600160a01b0316146112af5760405162461bcd60e51b815260040161035a90612ca3565b6001600160a01b0381166113145760405162461bcd60e51b815260206004820152602660248201527f53535f4d61726b6574706c6163653a20416464726573732063616e6e6f74206260448201526519481b9d5b1b60d21b606482015260840161035a565b600080546001600160a01b0319166001600160a01b0392909216919091179055565b7ff0c57e16840df040f15088dc2f81fe391c3923bec73e23a9662efc9c229c6a008054600160401b810460ff16159067ffffffffffffffff1660008115801561137c5750825b905060008267ffffffffffffffff1660011480156113995750303b155b9050811580156113a7575080155b156113c55760405163f92ee8a960e01b815260040160405180910390fd5b845467ffffffffffffffff1916600117855583156113ef57845460ff60401b1916600160401b1785555b6001600160a01b038088166000908152600360205260408120805460ff1916600117905580549188166001600160a01b0319909216919091179055831561147057845460ff60401b19168555604051600181527fc7f505b2f371ae2175ee4913f4499e1f2633a7b5936321eed1cdaeb6115181d29060200160405180910390a15b50505050505050565b60008054906101000a90046001600160a01b03166001600160a01b03166352a0d0d96040518163ffffffff1660e01b8152600401602060405180830381865afa1580156114ca573d6000803e3d6000fd5b505050506040513d601f19601f820116820180604052508101906114ee9190612bcd565b1561150b5760405162461bcd60e51b815260040161035a90612bea565b6001600160a01b0382166000908152600160209081526040808320848452909152812090600982015460ff16600281111561154857611548612862565b146115655760405162461bcd60e51b815260040161035a90612e4c565b80546001600160a01b0316331480611602575060008054906101000a90046001600160a01b03166001600160a01b031663ae7d99ea6040518163ffffffff1660e01b8152600401602060405180830381865afa1580156115c9573d6000803e3d6000fd5b505050506040513d601f19601f820116820180604052508101906115ed9190612c62565b6001600160a01b0316336001600160a01b0316145b61164e5760405162461bcd60e51b815260206004820152601e60248201527f53535f4d61726b6574706c6163653a204e6f74207468652073656c6c65720000604482015260640161035a565b6000808054906101000a90046001600160a01b03166001600160a01b031663ae7d99ea6040518163ffffffff1660e01b8152600401602060405180830381865afa1580156116a0573d6000803e3d6000fd5b505050506040513d601f19601f820116820180604052508101906116c49190612c62565b6001600160a01b0316336001600160a01b031614611b12576000546040805163255f643560e21b8152905142926001600160a01b03169163957d90d49160048083019260209291908290030181865afa158015611725573d6000803e3d6000fd5b505050506040513d601f19601f820116820180604052508101906117499190612e8e565b83600601546117589190612ea7565b1115611b125760008054906101000a90046001600160a01b03166001600160a01b0316633dc10ad46040518163ffffffff1660e01b8152600401602060405180830381865afa1580156117af573d6000803e3d6000fd5b505050506040513d601f19601f820116820180604052508101906117d39190612e8e565b60008054906101000a90046001600160a01b03166001600160a01b0316632f48ab7d6040518163ffffffff1660e01b8152600401602060405180830381865afa158015611824573d6000803e3d6000fd5b505050506040513d601f19601f820116820180604052508101906118489190612c62565b6040516370a0823160e01b81523360048201526001600160a01b0391909116906370a0823190602401602060405180830381865afa15801561188e573d6000803e3d6000fd5b505050506040513d601f19601f820116820180604052508101906118b29190612e8e565b10156119265760405162461bcd60e51b815260206004820152603860248201527f53535f4d61726b6574706c6163653a2050656e616c747920666565207265717560448201527f6972656420666f72206561726c7920756e6c697374696e670000000000000000606482015260840161035a565b611a9a3360008054906101000a90046001600160a01b03166001600160a01b031663c415b95c6040518163ffffffff1660e01b8152600401602060405180830381865afa15801561197b573d6000803e3d6000fd5b505050506040513d601f19601f8201168201806040525081019061199f9190612c62565b60008054906101000a90046001600160a01b03166001600160a01b0316633dc10ad46040518163ffffffff1660e01b8152600401602060405180830381865afa1580156119f0573d6000803e3d6000fd5b505050506040513d601f19601f82011682018060405250810190611a149190612e8e565b60008054906101000a90046001600160a01b03166001600160a01b0316632f48ab7d6040518163ffffffff1660e01b8152600401602060405180830381865afa158015611a65573d6000803e3d6000fd5b505050506040513d601f19601f82011682018060405250810190611a899190612c62565b6001600160a01b0316929190612613565b60008054906101000a90046001600160a01b03166001600160a01b0316633dc10ad46040518163ffffffff1660e01b8152600401602060405180830381865afa158015611aeb573d6000803e3d6000fd5b505050506040513d601f19601f82011682018060405250810190611b0f9190612e8e565b90505b60008054906101000a90046001600160a01b03166001600160a01b031663db27b8dd6040518163ffffffff1660e01b8152600401602060405180830381865afa158015611b63573d6000803e3d6000fd5b505050506040513d601f19601f82011682018060405250810190611b879190612c62565b8254600284015460405163034d1f6b60e01b81526001600160a01b039384169363034d1f6b93611bbf93911691899190600401612c7f565b600060405180830381600087803b158015611bd957600080fd5b505af1158015611bed573d6000803e3d6000fd5b5050505060098201805460ff191660029081179091556000908301556040805182815233602082015284916001600160a01b038716917f7af21cf704f1d9609304421e9246ddb9702cfb16f69f42b83a6a92cad19bc369910160405180910390a350505050565b8051602080830191909120604080516004815260248101825292830180516001600160e01b03166001600160e01b031984161790525160009283916001600160a01b03871691611ca391612eba565b600060405180830381855afa9150503d8060008114611cde576040519150601f19603f3d011682016040523d82523d6000602084013e611ce3565b606091505b509093505050505b92915050565b6000600984015460ff166002811115611d0c57611d0c612862565b14611d295760405162461bcd60e51b815260040161035a90612e4c565b6001600160a01b0381163303611d815760405162461bcd60e51b815260206004820181905260248201527f53535f4d61726b6574706c6163653a20496e76616c696420726566657272616c604482015260640161035a565b60078301546001600160a01b03161580611e0457506007830154604051632f47185360e11b81523360048201526001600160a01b0390911690635e8e30a690602401602060405180830381865afa158015611de0573d6000803e3d6000fd5b505050506040513d601f19601f82011682018060405250810190611e049190612bcd565b611e505760405162461bcd60e51b815260206004820152601f60248201527f53535f4d61726b6574706c6163653a204e6f742077686974656c697374656400604482015260640161035a565b6001600484015460ff166001811115611e6b57611e6b612862565b1480611e885750826008015482101580611e885750826002015482145b611ee45760405162461bcd60e51b815260206004820152602760248201527f53535f4d61726b6574706c6163653a20496e76616c696420507572636861736560448201526608185b5bdd5b9d60ca1b606482015260840161035a565b6001600484015460ff166001811115611eff57611eff612862565b141580611f0f5750826001015482145b611f5b5760405162461bcd60e51b815260206004820152601e60248201527f53535f4d61726b6574706c6163653a20496e76616c696420616d6f756e740000604482015260640161035a565b8260020154821115611faf5760405162461bcd60e51b815260206004820152601c60248201527f53535f4d61726b6574706c6163653a20496e73756666696369656e7400000000604482015260640161035a565b505050565b600080546040516373a850af60e11b81526001600160a01b0384811660048301528392839283929091169063e750a15e906024016040805180830381865afa158015612004573d6000803e3d6000fd5b505050506040513d601f19601f820116820180604052508101906120289190612ed6565b9150915060001982136120af5760008054906101000a90046001600160a01b03166001600160a01b0316635de6c42f6040518163ffffffff1660e01b8152600401602060405180830381865afa158015612086573d6000803e3d6000fd5b505050506040513d601f19601f820116820180604052508101906120aa9190612e8e565b6120b1565b815b935060001981136121365760008054906101000a90046001600160a01b03166001600160a01b031663e1f3d55a6040518163ffffffff1660e01b8152600401602060405180830381865afa15801561210d573d6000803e3d6000fd5b505050506040513d601f19601f820116820180604052508101906121319190612e8e565b612138565b805b92505050915091565b600382015460009060016004850154610100900460ff16600281111561216957612169612862565b036121b75761271084600101548560050154856121869190612dfa565b6121909190612e11565b61219c90612710612c4f565b6121a69083612dfa565b6121b09190612e11565b9050612208565b60026004850154610100900460ff1660028111156121d7576121d7612862565b036122085761271084600501546127106121f19190612c4f565b6121fb9083612dfa565b6122059190612e11565b90505b9392505050565b60008060008060008054906101000a90046001600160a01b03166001600160a01b031663db27b8dd6040518163ffffffff1660e01b8152600401602060405180830381865afa158015612266573d6000803e3d6000fd5b505050506040513d601f19601f8201168201806040525081019061228a9190612c62565b600a8b0154604051635398833760e11b81526001600160a01b03918216600482015291169063a731066e90602401602060405180830381865afa1580156122d5573d6000803e3d6000fd5b505050506040513d601f19601f820116820180604052508101906122f99190612c62565b6001600160a01b031663313ce5676040518163ffffffff1660e01b8152600401602060405180830381865afa158015612336573d6000803e3d6000fd5b505050506040513d601f19601f8201168201806040525081019061235a9190612ce4565b61236590600a612deb565b61236f898b612dfa565b6123799190612e11565b9050600081116123d55760405162461bcd60e51b815260206004820152602160248201527f53535f4d61726b6574706c6163653a20416d6f756e7420746f6f206c6974746c6044820152606560f81b606482015260840161035a565b6127106123e28883612dfa565b6123ec9190612e11565b93506127106123fb8783612dfa565b6124059190612e11565b925061243133306124168785612ea7565b60098e015461010090046001600160a01b0316929190612613565b600091506001600160a01b03851615801590612458575060078a01546001600160a01b0316155b156125275761246961271080612dfa565b60008054906101000a90046001600160a01b03166001600160a01b03166384ae2bc66040518163ffffffff1660e01b8152600401602060405180830381865afa1580156124ba573d6000803e3d6000fd5b505050506040513d601f19601f820116820180604052508101906124de9190612e8e565b6124e88984612dfa565b6124f29190612dfa565b6124fc9190612e11565b6125069085612c4f565b60098b01549092506125279061010090046001600160a01b03168684612673565b895461255a906001600160a01b03166125408584612c4f565b60098d015461010090046001600160a01b03169190612673565b6000836125678487612c4f565b6125719190612ea7565b905061260560008054906101000a90046001600160a01b03166001600160a01b031663c415b95c6040518163ffffffff1660e01b8152600401602060405180830381865afa1580156125c7573d6000803e3d6000fd5b505050506040513d601f19601f820116820180604052508101906125eb9190612c62565b60098d015461010090046001600160a01b03169083612673565b505096509650969350505050565b61266d84856001600160a01b03166323b872dd86868660405160240161263b93929190612c7f565b604051602081830303815290604052915060e01b6020820180516001600160e01b0383818316178352505050506126a4565b50505050565b6040516001600160a01b03838116602483015260448201839052611faf91859182169063a9059cbb9060640161263b565b60006126b96001600160a01b03841683612707565b905080516000141580156126de5750808060200190518101906126dc9190612bcd565b155b15611faf57604051635274afe760e01b81526001600160a01b038416600482015260240161035a565b60606122088383600084600080856001600160a01b0316848660405161272d9190612eba565b60006040518083038185875af1925050503d806000811461276a576040519150601f19603f3d011682016040523d82523d6000602084013e61276f565b606091505b509150915061277f868383612789565b9695505050505050565b60608261279e57612799826127e5565b612208565b81511580156127b557506001600160a01b0384163b155b156127de57604051639996b31560e01b81526001600160a01b038516600482015260240161035a565b5080612208565b8051156127f55780518082602001fd5b604051630a12f52160e11b815260040160405180910390fd5b50565b6001600160a01b038116811461280e57600080fd5b803561283181612811565b919050565b6000806040838503121561284957600080fd5b823561285481612811565b946020939093013593505050565b634e487b7160e01b600052602160045260246000fd5b6003811061288857612888612862565b9052565b6001600160a01b038e168152602081018d9052604081018c9052606081018b90526101a0810160028b106128c2576128c2612862565b8a60808301526128d560a083018b612878565b8860c08301528760e08301526128f76101008301886001600160a01b03169052565b8561012083015261290c610140830186612878565b6001600160a01b0384166101608301526001600160a01b0383166101808301529e9d5050505050505050505050505050565b60006020828403121561295057600080fd5b813561220881612811565b6000806000806080858703121561297157600080fd5b843561297c81612811565b93506020850135925060408501359150606085013561299a81612811565b939692955090935050565b801515811461280e57600080fd5b8035612831816129a5565b6000806000806000806000806000806101408b8d0312156129de57600080fd5b8a356129e981612811565b995060208b0135985060408b0135975060608b0135965060808b013560028110612a1257600080fd5b955060a08b013560038110612a2657600080fd5b945060c08b01359350612a3b60e08c01612826565b92506101008b01359150612a526101208c016129b3565b90509295989b9194979a5092959850565b60008060408385031215612a7657600080fd5b8235612a8181612811565b91506020830135612a9181612811565b809150509250929050565b60005b83811015612ab7578181015183820152602001612a9f565b50506000910152565b6020815260008251806020840152612adf816040850160208701612a9c565b601f01601f19169190910160400192915050565b634e487b7160e01b600052604160045260246000fd5b60008060408385031215612b1c57600080fd5b8235612b2781612811565b9150602083013567ffffffffffffffff80821115612b4457600080fd5b818501915085601f830112612b5857600080fd5b813581811115612b6a57612b6a612af3565b604051601f8201601f19908116603f01168101908382118183101715612b9257612b92612af3565b81604052828152886020848701011115612bab57600080fd5b8260208601602083013760006020848301015280955050505050509250929050565b600060208284031215612bdf57600080fd5b8151612208816129a5565b6020808252602f908201527f53535f4d61726b6574706c6163653a204d61726b6574706c616365206973206360408201526e3ab93932b73a363c90333937bd32b760891b606082015260800190565b634e487b7160e01b600052601160045260246000fd5b81810381811115611ceb57611ceb612c39565b600060208284031215612c7457600080fd5b815161220881612811565b6001600160a01b039384168152919092166020820152604081019190915260600190565b60208082526021908201527f53535f4d61726b6574706c6163653a20556e617574686f72697a6564207573656040820152603960f91b606082015260800190565b600060208284031215612cf657600080fd5b815160ff8116811461220857600080fd5b600181815b80851115612d42578160001904821115612d2857612d28612c39565b80851615612d3557918102915b93841c9390800290612d0c565b509250929050565b600082612d5957506001611ceb565b81612d6657506000611ceb565b8160018114612d7c5760028114612d8657612da2565b6001915050611ceb565b60ff841115612d9757612d97612c39565b50506001821b611ceb565b5060208310610133831016604e8410600b8410161715612dc5575081810a611ceb565b612dcf8383612d07565b8060001904821115612de357612de3612c39565b029392505050565b600061220860ff841683612d4a565b8082028115828204841417611ceb57611ceb612c39565b600082612e2e57634e487b7160e01b600052601260045260246000fd5b500490565b600060018201612e4557612e45612c39565b5060010190565b60208082526022908201527f53535f4d61726b6574706c6163653a204c697374696e67206e6f742061637469604082015261766560f01b606082015260800190565b600060208284031215612ea057600080fd5b5051919050565b80820180821115611ceb57611ceb612c39565b60008251612ecc818460208701612a9c565b9190910192915050565b60008060408385031215612ee957600080fd5b50508051602090910151909290915056fea26469706673582212204ee97981a264967978e4684a5189ebf3e6ef692e31b5d330d9e8dd83af0e395564736f6c63430008180033",
  "linkReferences": {},
  "deployedLinkReferences": {}
}