{
  "_format": "hh-sol-artifact-1",
  "contractName": "SecondSwap_VestingDeployer",
  "sourceName": "contracts/SecondSwap_VestingDeployer.sol",
  "abi": [
    {
      "inputs": [],
      "name": "InvalidInitialization",
      "type": "error"
    },
    {
      "inputs": [],
      "name": "NotInitializing",
      "type": "error"
    },
    {
      "anonymous": false,
      "inputs": [
        {
          "indexed": false,
          "internalType": "uint64",
          "name": "version",
          "type": "uint64"
        }
      ],
      "name": "Initialized",
      "type": "event"
    },
    {
      "anonymous": false,
      "inputs": [
        {
          "indexed": true,
          "internalType": "address",
          "name": "beneficiary",
          "type": "address"
        },
        {
          "indexed": false,
          "internalType": "address",
          "name": "stepVesting",
          "type": "address"
        },
        {
          "indexed": false,
          "internalType": "uint256",
          "name": "amount",
          "type": "uint256"
        }
      ],
      "name": "VestingClaimed",
      "type": "event"
    },
    {
      "anonymous": false,
      "inputs": [
        {
          "indexed": true,
          "internalType": "address",
          "name": "beneficiary",
          "type": "address"
        },
        {
          "indexed": false,
          "internalType": "uint256",
          "name": "totalAmount",
          "type": "uint256"
        },
        {
          "indexed": false,
          "internalType": "address",
          "name": "stepVesting",
          "type": "address"
        }
      ],
      "name": "VestingCreated",
      "type": "event"
    },
    {
      "anonymous": false,
      "inputs": [
        {
          "indexed": true,
          "internalType": "address",
          "name": "token",
          "type": "address"
        },
        {
          "indexed": false,
          "internalType": "address",
          "name": "vesting",
          "type": "address"
        },
        {
          "indexed": false,
          "internalType": "string",
          "name": "vestingId",
          "type": "string"
        }
      ],
      "name": "VestingDeployed",
      "type": "event"
    },
    {
      "anonymous": false,
      "inputs": [
        {
          "indexed": true,
          "internalType": "address",
          "name": "grantor",
          "type": "address"
        },
        {
          "indexed": true,
          "internalType": "address",
          "name": "beneficiary",
          "type": "address"
        },
        {
          "indexed": false,
          "internalType": "uint256",
          "name": "amount",
          "type": "uint256"
        },
        {
          "indexed": false,
          "internalType": "address",
          "name": "stepVesting",
          "type": "address"
        },
        {
          "indexed": false,
          "internalType": "string",
          "name": "transactionId",
          "type": "string"
        }
      ],
      "name": "VestingTransferred",
      "type": "event"
    },
    {
      "inputs": [
        {
          "internalType": "address",
          "name": "",
          "type": "address"
        }
      ],
      "name": "_tokenOwner",
      "outputs": [
        {
          "internalType": "address",
          "name": "",
          "type": "address"
        }
      ],
      "stateMutability": "view",
      "type": "function"
    },
    {
      "inputs": [
        {
          "internalType": "address",
          "name": "tokenAddress",
          "type": "address"
        },
        {
          "internalType": "address",
          "name": "_beneficiary",
          "type": "address"
        },
        {
          "internalType": "uint256",
          "name": "_totalAmount",
          "type": "uint256"
        },
        {
          "internalType": "address",
          "name": "_stepVesting",
          "type": "address"
        }
      ],
      "name": "createVesting",
      "outputs": [],
      "stateMutability": "nonpayable",
      "type": "function"
    },
    {
      "inputs": [
        {
          "internalType": "address",
          "name": "tokenAddress",
          "type": "address"
        },
        {
          "internalType": "address[]",
          "name": "_beneficiaries",
          "type": "address[]"
        },
        {
          "internalType": "uint256[]",
          "name": "_totalAmounts",
          "type": "uint256[]"
        },
        {
          "internalType": "address",
          "name": "_stepVesting",
          "type": "address"
        }
      ],
      "name": "createVestings",
      "outputs": [],
      "stateMutability": "nonpayable",
      "type": "function"
    },
    {
      "inputs": [
        {
          "internalType": "address",
          "name": "tokenAddress",
          "type": "address"
        },
        {
          "internalType": "uint256",
          "name": "startTime",
          "type": "uint256"
        },
        {
          "internalType": "uint256",
          "name": "endTime",
          "type": "uint256"
        },
        {
          "internalType": "uint256",
          "name": "steps",
          "type": "uint256"
        },
        {
          "internalType": "string",
          "name": "vestingId",
          "type": "string"
        }
      ],
      "name": "deployVesting",
      "outputs": [],
      "stateMutability": "nonpayable",
      "type": "function"
    },
    {
      "inputs": [
        {
          "internalType": "address",
          "name": "_s2Admin",
          "type": "address"
        },
        {
          "internalType": "address",
          "name": "_manager",
          "type": "address"
        }
      ],
      "name": "initialize",
      "outputs": [],
      "stateMutability": "nonpayable",
      "type": "function"
    },
    {
      "inputs": [],
      "name": "manager",
      "outputs": [
        {
          "internalType": "address",
          "name": "",
          "type": "address"
        }
      ],
      "stateMutability": "view",
      "type": "function"
    },
    {
      "inputs": [],
      "name": "s2Admin",
      "outputs": [
        {
          "internalType": "address",
          "name": "",
          "type": "address"
        }
      ],
      "stateMutability": "view",
      "type": "function"
    },
    {
      "inputs": [
        {
          "internalType": "address",
          "name": "_admin",
          "type": "address"
        }
      ],
      "name": "setAdmin",
      "outputs": [],
      "stateMutability": "nonpayable",
      "type": "function"
    },
    {
      "inputs": [
        {
          "internalType": "address",
          "name": "_manager",
          "type": "address"
        }
      ],
      "name": "setManager",
      "outputs": [],
      "stateMutability": "nonpayable",
      "type": "function"
    },
    {
      "inputs": [
        {
          "internalType": "address",
          "name": "token",
          "type": "address"
        },
        {
          "internalType": "address",
          "name": "_owner",
          "type": "address"
        }
      ],
      "name": "setTokenOwner",
      "outputs": [],
      "stateMutability": "nonpayable",
      "type": "function"
    },
    {
      "inputs": [
        {
          "internalType": "address",
          "name": "tokenAddress",
          "type": "address"
        },
        {
          "internalType": "address",
          "name": "_grantor",
          "type": "address"
        },
        {
          "internalType": "address",
          "name": "_beneficiary",
          "type": "address"
        },
        {
          "internalType": "uint256",
          "name": "_amount",
          "type": "uint256"
        },
        {
          "internalType": "address",
          "name": "_stepVesting",
          "type": "address"
        },
        {
          "internalType": "string",
          "name": "_transactionId",
          "type": "string"
        }
      ],
      "name": "transferVesting",
      "outputs": [],
      "stateMutability": "nonpayable",
      "type": "function"
    },
    {
      "inputs": [],
      "name": "version",
      "outputs": [
        {
          "internalType": "string",
          "name": "",
          "type": "string"
        }
      ],
      "stateMutability": "pure",
      "type": "function"
    }
  ],
  "bytecode": "0x608060405234801561001057600080fd5b5061290e806100206000396000f3fe60806040523480156200001157600080fd5b5060043610620000c35760003560e01c806380495987116200007a5780638049598714620001805780639e2e93121462000197578063ae7d99ea14620001c3578063c242382b14620001d7578063cd025b7614620001ee578063d0ebdbe7146200020557600080fd5b806307ca479414620000c8578063481c6a7514620000e1578063485cc95514620001125780634b627b84146200012957806354fd4d501462000140578063704b6c021462000169575b600080fd5b620000df620000d936600462000dfb565b6200021c565b005b600054620000f5906001600160a01b031681565b6040516001600160a01b0390911681526020015b60405180910390f35b620000df6200012336600462000e6e565b62000505565b620000df6200013a36600462000f4a565b62000643565b60408051808201825260058152640312e302e360dc1b602082015290516200010991906200108b565b620000df6200017a366004620010a7565b6200081d565b620000df62000191366004620010c7565b6200089c565b620000f5620001a8366004620010a7565b6001602052600090815260409020546001600160a01b031681565b600254620000f5906001600160a01b031681565b620000df620001e836600462001163565b62000a2b565b620000df620001ff36600462000e6e565b62000ba5565b620000df62000216366004620010a7565b62000c82565b336000908152600160205260409020546001600160a01b03868116911614620002625760405162461bcd60e51b81526004016200025990620011bd565b60405180910390fd5b6001600160a01b0385166200028b5760405162461bcd60e51b815260040162000259906200120e565b828410620002fb5760405162461bcd60e51b815260206004820152603660248201527f53535f56657374696e674465706c6f7965723a2073746172742074696d65206d604482015275757374206265206265666f726520656e642074696d6560501b606482015260840162000259565b60008211620003665760405162461bcd60e51b815260206004820152603060248201527f53535f56657374696e674465706c6f7965723a207374657073206d757374206260448201526f0652067726561746572207468616e20360841b606482015260840162000259565b6000546001600160a01b0316620003cc5760405162461bcd60e51b815260206004820152602360248201527f53535f56657374696e674465706c6f7965723a206d616e61676572206e6f74206044820152621cd95d60ea1b606482015260840162000259565b60003360008054906101000a90046001600160a01b03168787878730604051620003f69062000d01565b6001600160a01b039788168152958716602087015293861660408601526060850192909252608084015260a083015290911660c082015260e001604051809103906000f0801580156200044d573d6000803e3d6000fd5b506000546040516348560e0960e01b81526001600160a01b038084166004830152600160248301529293509116906348560e0990604401600060405180830381600087803b1580156200049f57600080fd5b505af1158015620004b4573d6000803e3d6000fd5b50505050856001600160a01b03167f50e7658f878d284b49bc3648ef621ff64a4ec58f6288266e7bcdd8cad182b5958284604051620004f592919062001257565b60405180910390a2505050505050565b7ff0c57e16840df040f15088dc2f81fe391c3923bec73e23a9662efc9c229c6a008054600160401b810460ff16159067ffffffffffffffff166000811580156200054c5750825b905060008267ffffffffffffffff1660011480156200056a5750303b155b90508115801562000579575080155b15620005985760405163f92ee8a960e01b815260040160405180910390fd5b845467ffffffffffffffff191660011785558315620005c357845460ff60401b1916600160401b1785555b600280546001600160a01b03808a166001600160a01b031992831617909255600080549289169290911691909117905583156200063a57845460ff60401b19168555604051600181527fc7f505b2f371ae2175ee4913f4499e1f2633a7b5936321eed1cdaeb6115181d29060200160405180910390a15b50505050505050565b6001600160a01b0384166200066c5760405162461bcd60e51b815260040162000259906200120e565b806001600160a01b031663fc0c546a6040518163ffffffff1660e01b8152600401602060405180830381865afa158015620006ab573d6000803e3d6000fd5b505050506040513d601f19601f82011682018060405250810190620006d1919062001285565b336000908152600160205260409020546001600160a01b039081169116146200070e5760405162461bcd60e51b81526004016200025990620011bd565b60405163b9c8af6360e01b81526001600160a01b0382169063b9c8af63906200073e9086908690600401620012a5565b600060405180830381600087803b1580156200075957600080fd5b505af11580156200076e573d6000803e3d6000fd5b5050505060005b835181101562000816578381815181106200079457620007946200132d565b60200260200101516001600160a01b03167f41544b79b01514993c02c205a970bed1c79d2abd919f8f9a97090fb081c6b36e848381518110620007db57620007db6200132d565b602002602001015184604051620008059291909182526001600160a01b0316602082015260400190565b60405180910390a260010162000775565b5050505050565b6002546001600160a01b031633146200084a5760405162461bcd60e51b8152600401620002599062001343565b6002546001600160a01b038083169116036200087a5760405162461bcd60e51b8152600401620002599062001388565b600280546001600160a01b0319166001600160a01b0392909216919091179055565b6001600160a01b038616620008c55760405162461bcd60e51b815260040162000259906200120e565b816001600160a01b031663fc0c546a6040518163ffffffff1660e01b8152600401602060405180830381865afa15801562000904573d6000803e3d6000fd5b505050506040513d601f19601f820116820180604052508101906200092a919062001285565b336000908152600160205260409020546001600160a01b03908116911614620009675760405162461bcd60e51b81526004016200025990620011bd565b60405162979d8b60e71b81526001600160a01b038681166004830152858116602483015260448201859052831690634bcec58090606401600060405180830381600087803b158015620009b957600080fd5b505af1158015620009ce573d6000803e3d6000fd5b50505050836001600160a01b0316856001600160a01b03167f40b005c6f3a7931c927955b27ade527d4f3a78c5c7c4936431a9a360371e066d85858560405162000a1b93929190620013da565b60405180910390a3505050505050565b6001600160a01b03841662000a545760405162461bcd60e51b815260040162000259906200120e565b806001600160a01b031663fc0c546a6040518163ffffffff1660e01b8152600401602060405180830381865afa15801562000a93573d6000803e3d6000fd5b505050506040513d601f19601f8201168201806040525081019062000ab9919062001285565b336000908152600160205260409020546001600160a01b0390811691161462000af65760405162461bcd60e51b81526004016200025990620011bd565b604051636c3b0c5360e01b81526001600160a01b03848116600483015260248201849052821690636c3b0c5390604401600060405180830381600087803b15801562000b4157600080fd5b505af115801562000b56573d6000803e3d6000fd5b5050604080518581526001600160a01b038581166020830152871693507f41544b79b01514993c02c205a970bed1c79d2abd919f8f9a97090fb081c6b36e92500160405180910390a250505050565b6002546001600160a01b0316331462000bd25760405162461bcd60e51b8152600401620002599062001343565b6001600160a01b03818116600090815260016020526040902054161562000c525760405162461bcd60e51b815260206004820152602d60248201527f53535f56657374696e674465706c6f7965723a204578697374696e6720746f6b60448201526c32b7103430bb329037bbb732b960991b606482015260840162000259565b6001600160a01b0390811660009081526001602052604090208054919092166001600160a01b0319909116179055565b6002546001600160a01b0316331462000caf5760405162461bcd60e51b8152600401620002599062001343565b6000546001600160a01b0380831691160362000cdf5760405162461bcd60e51b8152600401620002599062001388565b600080546001600160a01b0319166001600160a01b0392909216919091179055565b6114c9806200141083390190565b6001600160a01b038116811462000d2557600080fd5b50565b803562000d358162000d0f565b919050565b634e487b7160e01b600052604160045260246000fd5b604051601f8201601f1916810167ffffffffffffffff8111828210171562000d7c5762000d7c62000d3a565b604052919050565b600082601f83011262000d9657600080fd5b813567ffffffffffffffff81111562000db35762000db362000d3a565b62000dc8601f8201601f191660200162000d50565b81815284602083860101111562000dde57600080fd5b816020850160208301376000918101602001919091529392505050565b600080600080600060a0868803121562000e1457600080fd5b853562000e218162000d0f565b9450602086013593506040860135925060608601359150608086013567ffffffffffffffff81111562000e5357600080fd5b62000e618882890162000d84565b9150509295509295909350565b6000806040838503121562000e8257600080fd5b823562000e8f8162000d0f565b9150602083013562000ea18162000d0f565b809150509250929050565b600067ffffffffffffffff82111562000ec95762000ec962000d3a565b5060051b60200190565b600082601f83011262000ee557600080fd5b8135602062000efe62000ef88362000eac565b62000d50565b8083825260208201915060208460051b87010193508684111562000f2157600080fd5b602086015b8481101562000f3f578035835291830191830162000f26565b509695505050505050565b6000806000806080858703121562000f6157600080fd5b843562000f6e8162000d0f565b935060208581013567ffffffffffffffff8082111562000f8d57600080fd5b818801915088601f83011262000fa257600080fd5b813562000fb362000ef88262000eac565b81815260059190911b8301840190848101908b83111562000fd357600080fd5b938501935b8285101562000ffe57843562000fee8162000d0f565b8252938501939085019062000fd8565b9750505060408801359250808311156200101757600080fd5b5050620010278782880162000ed3565b925050620010386060860162000d28565b905092959194509250565b6000815180845260005b818110156200106b576020818501810151868301820152016200104d565b506000602082860101526020601f19601f83011685010191505092915050565b602081526000620010a0602083018462001043565b9392505050565b600060208284031215620010ba57600080fd5b8135620010a08162000d0f565b60008060008060008060c08789031215620010e157600080fd5b8635620010ee8162000d0f565b95506020870135620011008162000d0f565b94506040870135620011128162000d0f565b93506060870135925060808701356200112b8162000d0f565b915060a087013567ffffffffffffffff8111156200114857600080fd5b6200115689828a0162000d84565b9150509295509295509295565b600080600080608085870312156200117a57600080fd5b8435620011878162000d0f565b93506020850135620011998162000d0f565b9250604085013591506060850135620011b28162000d0f565b939692955090935050565b60208082526031908201527f53535f56657374696e674465706c6f7965723a2063616c6c6572206973206e6f6040820152703a103a3432903a37b5b2b71037bbb732b960791b606082015260800190565b60208082526029908201527f53535f56657374696e674465706c6f7965723a20746f6b656e2061646472657360408201526873206973207a65726f60b81b606082015260800190565b6001600160a01b03831681526040602082018190526000906200127d9083018462001043565b949350505050565b6000602082840312156200129857600080fd5b8151620010a08162000d0f565b604080825283519082018190526000906020906060840190828701845b82811015620012e95781516001600160a01b031684529284019290840190600101620012c2565b5050508381038285015284518082528583019183019060005b81811015620013205783518352928401929184019160010162001302565b5090979650505050505050565b634e487b7160e01b600052603260045260246000fd5b60208082526025908201527f53535f56657374696e674465706c6f7965723a20556e617574686f72697a6564604082015264103ab9b2b960d91b606082015260800190565b60208082526032908201527f53535f56657374696e674465706c6f7965723a2043616e6e6f742061737369676040820152716e207468652073616d65206164647265737360701b606082015260800190565b8381526001600160a01b0383166020820152606060408201819052600090620014069083018462001043565b9594505050505056fe6101206040523480156200001257600080fd5b50604051620014c9380380620014c98339810160408190526200003591620000c8565b600180546001600160a01b038084166001600160a01b031992831617909255600380548a8416908316179055600280548984169216919091179055851660805260a084905260c083905260e08290528162000091858562000150565b6200009d919062000178565b61010052506200019b95505050505050565b6001600160a01b0381168114620000c557600080fd5b50565b600080600080600080600060e0888a031215620000e457600080fd5b8751620000f181620000af565b60208901519097506200010481620000af565b60408901519096506200011781620000af565b80955050606088015193506080880151925060a0880151915060c08801516200014081620000af565b8091505092959891949750929550565b818103818111156200017257634e487b7160e01b600052601160045260246000fd5b92915050565b6000826200019657634e487b7160e01b600052601260045260246000fd5b500490565b60805160a05160c05160e0516101005161129c6200022d600039600081816101bd015261045301526000818161020101528181610490015281816106a101528181610ad901528181610b9e0152610be601526000818161015b01526103c301526000818161023b015281816103eb0152610425015260008181610309015281816107e00152610c95015261129c6000f3fe608060405234801561001057600080fd5b50600436106101005760003560e01c80635d1fbf5411610097578063b9c8af6311610066578063b9c8af63146102b2578063d2514e84146102c5578063f243c2a7146102f1578063fc0c546a1461030457600080fd5b80635d1fbf54146101fc5780636c3b0c531461022357806378e9792514610236578063846bd2a41461025d57600080fd5b8063481c6a75116100d3578063481c6a75146101a55780634a4e5776146101b85780634bcec580146101df5780634e71d92d146101f457600080fd5b806310098ad5146101055780632e97d9a81461012b5780633197cbb614610156578063402914f51461017d575b600080fd5b610118610113366004610f2c565b61032b565b6040519081526020015b60405180910390f35b60015461013e906001600160a01b031681565b6040516001600160a01b039091168152602001610122565b6101187f000000000000000000000000000000000000000000000000000000000000000081565b61019061018b366004610f2c565b61035e565b60408051928352602083019190915201610122565b60025461013e906001600160a01b031681565b6101187f000000000000000000000000000000000000000000000000000000000000000081565b6101f26101ed366004610f47565b6104f7565b005b6101f261072f565b6101187f000000000000000000000000000000000000000000000000000000000000000081565b6101f2610231366004610f83565b610841565b6101187f000000000000000000000000000000000000000000000000000000000000000081565b61029261026b366004610f2c565b60006020819052908152604090208054600182015460028301546003909301549192909184565b604080519485526020850193909352918301526060820152608001610122565b6101f26102c0366004611087565b6108d6565b6101186102d3366004610f2c565b6001600160a01b031660009081526020819052604090206003015490565b60035461013e906001600160a01b031681565b61013e7f000000000000000000000000000000000000000000000000000000000000000081565b6001600160a01b03811660009081526020819052604081206001810154600390910154610358919061115d565b92915050565b6001600160a01b038116600090815260208181526040808320815160808101835281548152600182015493810193909352600281015491830191909152600301546060820181905282919082036103bb5750600093849350915050565b60006103e7427f0000000000000000000000000000000000000000000000000000000000000000610a00565b90507f000000000000000000000000000000000000000000000000000000000000000081101561041e575060009485945092505050565b600061044a7f00000000000000000000000000000000000000000000000000000000000000008361115d565b905060006104787f000000000000000000000000000000000000000000000000000000000000000083611170565b845190915060009061048a908361115d565b905060007f00000000000000000000000000000000000000000000000000000000000000008287600001516104bf9190611192565b106104e757856020015186606001516104d8919061115d565b99919850909650505050505050565b8186604001516104d891906111a5565b6003546001600160a01b031633148061051a57506002546001600160a01b031633145b8061052f57506001546001600160a01b031633145b6105805760405162461bcd60e51b815260206004820152601c60248201527f53535f5374657056657374696e673a20756e617574686f72697a65640000000060448201526064015b60405180910390fd5b6001600160a01b0382166105a65760405162461bcd60e51b8152600401610577906111bc565b600081116105f65760405162461bcd60e51b815260206004820152601e60248201527f53535f5374657056657374696e673a20616d6f756e74206973207a65726f00006044820152606401610577565b6001600160a01b03831660009081526020819052604090206001810154600382015483916106239161115d565b101561067d5760405162461bcd60e51b8152602060048201526024808201527f53535f5374657056657374696e673a20696e73756666696369656e742062616c604482015263616e636560e01b6064820152608401610577565b81816003016000828254610691919061115d565b909155505060038101546106c6907f000000000000000000000000000000000000000000000000000000000000000090611170565b600282015580546106dc90849084906001610a18565b826001600160a01b0316846001600160a01b03167f28035e0a2aade344a724a1dfe2a46f2d21bf819c8610a3c5f965cf59fda8b5668460405161072191815260200190565b60405180910390a350505050565b60008061073b3361035e565b915091506000821161078f5760405162461bcd60e51b815260206004820181905260248201527f53535f5374657056657374696e673a206e6f7468696e6720746f20636c61696d6044820152606401610577565b3360009081526020819052604081208054909183918391906107b2908490611192565b92505081905550828160010160008282546107cd9190611192565b9091555061080790506001600160a01b037f0000000000000000000000000000000000000000000000000000000000000000163385610d08565b60405183815233907fd8138f8a3f377c5259ca548e70e4c2de94f129f5a11036a15b69513cba2b426a9060200160405180910390a2505050565b6003546001600160a01b031633148061086457506002546001600160a01b031633145b8061087957506001546001600160a01b031633145b6108c55760405162461bcd60e51b815260206004820152601c60248201527f53535f5374657056657374696e673a20756e617574686f72697a6564000000006044820152606401610577565b6108d28282600080610a18565b5050565b6003546001600160a01b03163314806108f957506002546001600160a01b031633145b8061090e57506001546001600160a01b031633145b6109495760405162461bcd60e51b815260206004820152600c60248201526b1d5b985d5d1a1bdc9a5e995960a21b6044820152606401610577565b80518251146109a85760405162461bcd60e51b815260206004820152602560248201527f53535f5374657056657374696e673a206172726179206c656e677468206d69736044820152640dac2e8c6d60db1b6064820152608401610577565b60005b82518110156109fb576109f38382815181106109c9576109c96111ff565b60200260200101518383815181106109e3576109e36111ff565b6020026020010151600080610a18565b6001016109ab565b505050565b6000818310610a0f5781610a11565b825b9392505050565b6001600160a01b038416610a3e5760405162461bcd60e51b8152600401610577906111bc565b60008311610a9a5760405162461bcd60e51b8152602060048201526024808201527f53535f5374657056657374696e673a20746f74616c20616d6f756e74206973206044820152637a65726f60e01b6064820152608401610577565b6001600160a01b0384166000908152602081905260408120600301549003610b4f576040805160808101825283815260006020820152908101610afd847f000000000000000000000000000000000000000000000000000000000000000061115d565b610b079086611170565b815260209081018590526001600160a01b0386166000908152808252604090819020835181559183015160018301558201516002820155606090910151600390910155610c7f565b6001600160a01b03841660009081526020819052604081206003018054859290610b7a908490611192565b90915550506001600160a01b038416600090815260208190526040902054610bc2907f000000000000000000000000000000000000000000000000000000000000000061115d565b15610c62576001600160a01b038416600090815260208190526040902054610c0a907f000000000000000000000000000000000000000000000000000000000000000061115d565b6001600160a01b03851660009081526020819052604090206001810154600390910154610c37919061115d565b610c419190611170565b6001600160a01b038516600090815260208190526040902060020155610c7f565b6001600160a01b0384166000908152602081905260408120600201555b80610cbf57600354610cbf906001600160a01b037f0000000000000000000000000000000000000000000000000000000000000000811691163086610d67565b836001600160a01b03167f2f5488c5b0350655053f3d00e1693b26a49ecd0242b2c0df881ccda054490d3084604051610cfa91815260200190565b60405180910390a250505050565b6040516001600160a01b038381166024830152604482018390526109fb91859182169063a9059cbb906064015b604051602081830303815290604052915060e01b6020820180516001600160e01b038381831617835250505050610da6565b6040516001600160a01b038481166024830152838116604483015260648201839052610da09186918216906323b872dd90608401610d35565b50505050565b6000610dbb6001600160a01b03841683610e09565b90508051600014158015610de0575080806020019051810190610dde9190611215565b155b156109fb57604051635274afe760e01b81526001600160a01b0384166004820152602401610577565b6060610a118383600084600080856001600160a01b03168486604051610e2f9190611237565b60006040518083038185875af1925050503d8060008114610e6c576040519150601f19603f3d011682016040523d82523d6000602084013e610e71565b606091505b5091509150610e81868383610e8b565b9695505050505050565b606082610ea057610e9b82610ee7565b610a11565b8151158015610eb757506001600160a01b0384163b155b15610ee057604051639996b31560e01b81526001600160a01b0385166004820152602401610577565b5080610a11565b805115610ef75780518082602001fd5b604051630a12f52160e11b815260040160405180910390fd5b80356001600160a01b0381168114610f2757600080fd5b919050565b600060208284031215610f3e57600080fd5b610a1182610f10565b600080600060608486031215610f5c57600080fd5b610f6584610f10565b9250610f7360208501610f10565b9150604084013590509250925092565b60008060408385031215610f9657600080fd5b610f9f83610f10565b946020939093013593505050565b634e487b7160e01b600052604160045260246000fd5b604051601f8201601f1916810167ffffffffffffffff81118282101715610fec57610fec610fad565b604052919050565b600067ffffffffffffffff82111561100e5761100e610fad565b5060051b60200190565b600082601f83011261102957600080fd5b8135602061103e61103983610ff4565b610fc3565b8083825260208201915060208460051b87010193508684111561106057600080fd5b602086015b8481101561107c5780358352918301918301611065565b509695505050505050565b6000806040838503121561109a57600080fd5b823567ffffffffffffffff808211156110b257600080fd5b818501915085601f8301126110c657600080fd5b813560206110d661103983610ff4565b82815260059290921b840181019181810190898411156110f557600080fd5b948201945b8386101561111a5761110b86610f10565b825294820194908201906110fa565b9650508601359250508082111561113057600080fd5b5061113d85828601611018565b9150509250929050565b634e487b7160e01b600052601160045260246000fd5b8181038181111561035857610358611147565b60008261118d57634e487b7160e01b600052601260045260246000fd5b500490565b8082018082111561035857610358611147565b808202811582820484141761035857610358611147565b60208082526023908201527f53535f5374657056657374696e673a2062656e6566696369617279206973207a60408201526265726f60e81b606082015260800190565b634e487b7160e01b600052603260045260246000fd5b60006020828403121561122757600080fd5b81518015158114610a1157600080fd5b6000825160005b81811015611258576020818601810151858301520161123e565b50600092019182525091905056fea2646970667358221220cd23faa7d3b7cfb0f881ce3d30d626a988ef53dfc0d0a486180f79135f96068364736f6c63430008180033a26469706673582212208dea134d2c8a61b9c3b1e2f79a96437b01daea124f75e7b0bbea6485cae7fefb64736f6c63430008180033",
  "linkReferences": {},
  "deployedLinkReferences": {}
}